{
  "_format": "hh-sol-artifact-1",
  "contractName": "GroupPool",
  "sourceName": "contracts/GroupPool.sol",
  "abi": [
    {
      "inputs": [],
      "stateMutability": "nonpayable",
      "type": "constructor"
    },
    {
      "inputs": [],
      "name": "CONTRIBUTION_PERCENT",
      "outputs": [
        {
          "internalType": "uint256",
          "name": "",
          "type": "uint256"
        }
      ],
      "stateMutability": "view",
      "type": "function"
    },
    {
      "inputs": [
        {
          "internalType": "address",
          "name": "_member",
          "type": "address"
        }
      ],
      "name": "addMember",
      "outputs": [],
      "stateMutability": "nonpayable",
      "type": "function"
    },
    {
      "inputs": [],
      "name": "admin",
      "outputs": [
        {
          "internalType": "address",
          "name": "",
          "type": "address"
        }
      ],
      "stateMutability": "view",
      "type": "function"
    },
    {
      "inputs": [],
      "name": "claimCount",
      "outputs": [
        {
          "internalType": "uint256",
          "name": "",
          "type": "uint256"
        }
      ],
      "stateMutability": "view",
      "type": "function"
    },
    {
      "inputs": [
        {
          "internalType": "uint256",
          "name": "",
          "type": "uint256"
        }
      ],
      "name": "claims",
      "outputs": [
        {
          "internalType": "address",
          "name": "claimant",
          "type": "address"
        },
        {
          "internalType": "uint256",
          "name": "amount",
          "type": "uint256"
        },
        {
          "internalType": "uint256",
          "name": "approvals",
          "type": "uint256"
        },
        {
          "internalType": "bool",
          "name": "executed",
          "type": "bool"
        }
      ],
      "stateMutability": "view",
      "type": "function"
    },
    {
      "inputs": [
        {
          "internalType": "uint256",
          "name": "_amount",
          "type": "uint256"
        }
      ],
      "name": "createClaim",
      "outputs": [],
      "stateMutability": "nonpayable",
      "type": "function"
    },
    {
      "inputs": [
        {
          "internalType": "uint256",
          "name": "",
          "type": "uint256"
        },
        {
          "internalType": "address",
          "name": "",
          "type": "address"
        }
      ],
      "name": "hasVoted",
      "outputs": [
        {
          "internalType": "bool",
          "name": "",
          "type": "bool"
        }
      ],
      "stateMutability": "view",
      "type": "function"
    },
    {
      "inputs": [
        {
          "internalType": "address",
          "name": "",
          "type": "address"
        }
      ],
      "name": "isMember",
      "outputs": [
        {
          "internalType": "bool",
          "name": "",
          "type": "bool"
        }
      ],
      "stateMutability": "view",
      "type": "function"
    },
    {
      "inputs": [],
      "name": "memberCount",
      "outputs": [
        {
          "internalType": "uint256",
          "name": "",
          "type": "uint256"
        }
      ],
      "stateMutability": "view",
      "type": "function"
    },
    {
      "inputs": [
        {
          "internalType": "uint256",
          "name": "",
          "type": "uint256"
        }
      ],
      "name": "members",
      "outputs": [
        {
          "internalType": "address",
          "name": "",
          "type": "address"
        }
      ],
      "stateMutability": "view",
      "type": "function"
    },
    {
      "inputs": [],
      "name": "totalPoolBalance",
      "outputs": [
        {
          "internalType": "uint256",
          "name": "",
          "type": "uint256"
        }
      ],
      "stateMutability": "view",
      "type": "function"
    },
    {
      "inputs": [
        {
          "internalType": "uint256",
          "name": "_claimId",
          "type": "uint256"
        }
      ],
      "name": "voteClaim",
      "outputs": [],
      "stateMutability": "nonpayable",
      "type": "function"
    },
    {
      "stateMutability": "payable",
      "type": "receive"
    }
  ],
  "bytecode": "0x608060405234801561001057600080fd5b50336000806101000a81548173ffffffffffffffffffffffffffffffffffffffff021916908373ffffffffffffffffffffffffffffffffffffffff1602179055506001600260003373ffffffffffffffffffffffffffffffffffffffff1673ffffffffffffffffffffffffffffffffffffffff16815260200190815260200160002060006101000a81548160ff0219169083151502179055506003339080600181540180825580915050600190039060005260206000200160009091909190916101000a81548173ffffffffffffffffffffffffffffffffffffffff021916908373ffffffffffffffffffffffffffffffffffffffff1602179055506111418061011b6000396000f3fe6080604052600436106100ab5760003560e01c80638da4d3c9116100645780638da4d3c9146101f1578063a230c5241461021c578063a888c2cd14610259578063ca6d56dc14610299578063ee236536146102c2578063f851a440146102ed576100ca565b806311aee380146100cf57806343859632146100fa5780635026d63e1461013757806353e65761146101625780635daf08ca1461018b5780636b6201da146101c8576100ca565b366100ca5734600160008282546100c29190610b6a565b925050819055005b600080fd5b3480156100db57600080fd5b506100e4610318565b6040516100f19190610bad565b60405180910390f35b34801561010657600080fd5b50610121600480360381019061011c9190610c57565b610325565b60405161012e9190610cb2565b60405180910390f35b34801561014357600080fd5b5061014c610354565b6040516101599190610bad565b60405180910390f35b34801561016e57600080fd5b5061018960048036038101906101849190610ccd565b61035a565b005b34801561019757600080fd5b506101b260048036038101906101ad9190610ccd565b61059d565b6040516101bf9190610d09565b60405180910390f35b3480156101d457600080fd5b506101ef60048036038101906101ea9190610ccd565b6105dc565b005b3480156101fd57600080fd5b50610206610796565b6040516102139190610bad565b60405180910390f35b34801561022857600080fd5b50610243600480360381019061023e9190610d24565b61079c565b6040516102509190610cb2565b60405180910390f35b34801561026557600080fd5b50610280600480360381019061027b9190610ccd565b6107bc565b6040516102909493929190610d51565b60405180910390f35b3480156102a557600080fd5b506102c060048036038101906102bb9190610d24565b610819565b005b3480156102ce57600080fd5b506102d76109f2565b6040516102e49190610bad565b60405180910390f35b3480156102f957600080fd5b506103026109f7565b60405161030f9190610d09565b60405180910390f35b6000600380549050905090565b60056020528160005260406000206020528060005260406000206000915091509054906101000a900460ff1681565b60015481565b600260003373ffffffffffffffffffffffffffffffffffffffff1673ffffffffffffffffffffffffffffffffffffffff16815260200190815260200160002060009054906101000a900460ff166103e6576040517f08c379a00000000000000000000000000000000000000000000000000000000081526004016103dd90610df3565b60405180910390fd5b60006004600083815260200190815260200160002090508060030160009054906101000a900460ff161561044f576040517f08c379a000000000000000000000000000000000000000000000000000000000815260040161044690610e5f565b60405180910390fd5b6005600083815260200190815260200160002060003373ffffffffffffffffffffffffffffffffffffffff1673ffffffffffffffffffffffffffffffffffffffff16815260200190815260200160002060009054906101000a900460ff16156104ed576040517f08c379a00000000000000000000000000000000000000000000000000000000081526004016104e490610ecb565b60405180910390fd5b60016005600084815260200190815260200160002060003373ffffffffffffffffffffffffffffffffffffffff1673ffffffffffffffffffffffffffffffffffffffff16815260200190815260200160002060006101000a81548160ff02191690831515021790555080600201600081548092919061056b90610eeb565b9190505550600261057a610318565b6105849190610f62565b816002015411156105995761059882610a1b565b5b5050565b600381815481106105ad57600080fd5b906000526020600020016000915054906101000a900473ffffffffffffffffffffffffffffffffffffffff1681565b600260003373ffffffffffffffffffffffffffffffffffffffff1673ffffffffffffffffffffffffffffffffffffffff16815260200190815260200160002060009054906101000a900460ff16610668576040517f08c379a000000000000000000000000000000000000000000000000000000000815260040161065f90610df3565b60405180910390fd5b6001548111156106ad576040517f08c379a00000000000000000000000000000000000000000000000000000000081526004016106a490610fdf565b60405180910390fd5b60405180608001604052803373ffffffffffffffffffffffffffffffffffffffff168152602001828152602001600081526020016000151581525060046000600654815260200190815260200160002060008201518160000160006101000a81548173ffffffffffffffffffffffffffffffffffffffff021916908373ffffffffffffffffffffffffffffffffffffffff160217905550602082015181600101556040820151816002015560608201518160030160006101000a81548160ff0219169083151502179055509050506006600081548092919061078e90610eeb565b919050555050565b60065481565b60026020528060005260406000206000915054906101000a900460ff1681565b60046020528060005260406000206000915090508060000160009054906101000a900473ffffffffffffffffffffffffffffffffffffffff16908060010154908060020154908060030160009054906101000a900460ff16905084565b60008054906101000a900473ffffffffffffffffffffffffffffffffffffffff1673ffffffffffffffffffffffffffffffffffffffff163373ffffffffffffffffffffffffffffffffffffffff16146108a7576040517f08c379a000000000000000000000000000000000000000000000000000000000815260040161089e9061104b565b60405180910390fd5b600260008273ffffffffffffffffffffffffffffffffffffffff1673ffffffffffffffffffffffffffffffffffffffff16815260200190815260200160002060009054906101000a900460ff1615610934576040517f08c379a000000000000000000000000000000000000000000000000000000000815260040161092b906110b7565b60405180910390fd5b6001600260008373ffffffffffffffffffffffffffffffffffffffff1673ffffffffffffffffffffffffffffffffffffffff16815260200190815260200160002060006101000a81548160ff0219169083151502179055506003819080600181540180825580915050600190039060005260206000200160009091909190916101000a81548173ffffffffffffffffffffffffffffffffffffffff021916908373ffffffffffffffffffffffffffffffffffffffff16021790555050565b600a81565b60008054906101000a900473ffffffffffffffffffffffffffffffffffffffff1681565b60006004600083815260200190815260200160002090508060030160009054906101000a900460ff1615610a84576040517f08c379a0000000000000000000000000000000000000000000000000000000008152600401610a7b90610e5f565b60405180910390fd5b60018160030160006101000a81548160ff021916908315150217905550806001015460016000828254610ab791906110d7565b925050819055508060000160009054906101000a900473ffffffffffffffffffffffffffffffffffffffff1673ffffffffffffffffffffffffffffffffffffffff166108fc82600101549081150290604051600060405180830381858888f19350505050158015610b2c573d6000803e3d6000fd5b505050565b6000819050919050565b7f4e487b7100000000000000000000000000000000000000000000000000000000600052601160045260246000fd5b6000610b7582610b31565b9150610b8083610b31565b9250828201905080821115610b9857610b97610b3b565b5b92915050565b610ba781610b31565b82525050565b6000602082019050610bc26000830184610b9e565b92915050565b600080fd5b610bd681610b31565b8114610be157600080fd5b50565b600081359050610bf381610bcd565b92915050565b600073ffffffffffffffffffffffffffffffffffffffff82169050919050565b6000610c2482610bf9565b9050919050565b610c3481610c19565b8114610c3f57600080fd5b50565b600081359050610c5181610c2b565b92915050565b60008060408385031215610c6e57610c6d610bc8565b5b6000610c7c85828601610be4565b9250506020610c8d85828601610c42565b9150509250929050565b60008115159050919050565b610cac81610c97565b82525050565b6000602082019050610cc76000830184610ca3565b92915050565b600060208284031215610ce357610ce2610bc8565b5b6000610cf184828501610be4565b91505092915050565b610d0381610c19565b82525050565b6000602082019050610d1e6000830184610cfa565b92915050565b600060208284031215610d3a57610d39610bc8565b5b6000610d4884828501610c42565b91505092915050565b6000608082019050610d666000830187610cfa565b610d736020830186610b9e565b610d806040830185610b9e565b610d8d6060830184610ca3565b95945050505050565b600082825260208201905092915050565b7f4e6f7420612067726f7570206d656d6265720000000000000000000000000000600082015250565b6000610ddd601283610d96565b9150610de882610da7565b602082019050919050565b60006020820190508181036000830152610e0c81610dd0565b9050919050565b7f416c726561647920657865637574656400000000000000000000000000000000600082015250565b6000610e49601083610d96565b9150610e5482610e13565b602082019050919050565b60006020820190508181036000830152610e7881610e3c565b9050919050565b7f416c726561647920766f74656400000000000000000000000000000000000000600082015250565b6000610eb5600d83610d96565b9150610ec082610e7f565b602082019050919050565b60006020820190508181036000830152610ee481610ea8565b9050919050565b6000610ef682610b31565b91507fffffffffffffffffffffffffffffffffffffffffffffffffffffffffffffffff8203610f2857610f27610b3b565b5b600182019050919050565b7f4e487b7100000000000000000000000000000000000000000000000000000000600052601260045260246000fd5b6000610f6d82610b31565b9150610f7883610b31565b925082610f8857610f87610f33565b5b828204905092915050565b7f496e73756666696369656e7420706f6f6c2066756e6473000000000000000000600082015250565b6000610fc9601783610d96565b9150610fd482610f93565b602082019050919050565b60006020820190508181036000830152610ff881610fbc565b9050919050565b7f4e6f742061646d696e0000000000000000000000000000000000000000000000600082015250565b6000611035600983610d96565b915061104082610fff565b602082019050919050565b6000602082019050818103600083015261106481611028565b9050919050565b7f416c7265616479206d656d626572000000000000000000000000000000000000600082015250565b60006110a1600e83610d96565b91506110ac8261106b565b602082019050919050565b600060208201905081810360008301526110d081611094565b9050919050565b60006110e282610b31565b91506110ed83610b31565b925082820390508181111561110557611104610b3b565b5b9291505056fea26469706673582212200372f7116f1606310385ea74d5209305cf2aedd226e32a650b2929dec557f25164736f6c634300081c0033",
  "linkReferences": {},
  "deployedLinkReferences": {}
}