{
  "_format": "hh-sol-artifact-1",
  "contractName": "GroupPool",
  "sourceName": "contracts/GroupPool.sol",
  "abi": [
    {
      "inputs": [],
      "stateMutability": "nonpayable",
      "type": "constructor"
    },
    {
      "inputs": [],
      "name": "CONTRIBUTION_PERCENT",
      "outputs": [
        {
          "internalType": "uint256",
          "name": "",
          "type": "uint256"
        }
      ],
      "stateMutability": "view",
      "type": "function"
    },
    {
      "inputs": [
        {
          "internalType": "address",
          "name": "_member",
          "type": "address"
        }
      ],
      "name": "addMember",
      "outputs": [],
      "stateMutability": "nonpayable",
      "type": "function"
    },
    {
      "inputs": [],
      "name": "admin",
      "outputs": [
        {
          "internalType": "address",
          "name": "",
          "type": "address"
        }
      ],
      "stateMutability": "view",
      "type": "function"
    },
    {
      "inputs": [],
      "name": "claimCount",
      "outputs": [
        {
          "internalType": "uint256",
          "name": "",
          "type": "uint256"
        }
      ],
      "stateMutability": "view",
      "type": "function"
    },
    {
      "inputs": [
        {
          "internalType": "uint256",
          "name": "",
          "type": "uint256"
        }
      ],
      "name": "claims",
      "outputs": [
        {
          "internalType": "address",
          "name": "claimant",
          "type": "address"
        },
        {
          "internalType": "uint256",
          "name": "amount",
          "type": "uint256"
        },
        {
          "internalType": "uint256",
          "name": "approvals",
          "type": "uint256"
        },
        {
          "internalType": "bool",
          "name": "executed",
          "type": "bool"
        }
      ],
      "stateMutability": "view",
      "type": "function"
    },
    {
      "inputs": [],
      "name": "contribute",
      "outputs": [],
      "stateMutability": "payable",
      "type": "function"
    },
    {
      "inputs": [
        {
          "internalType": "uint256",
          "name": "_amount",
          "type": "uint256"
        }
      ],
      "name": "createClaim",
      "outputs": [],
      "stateMutability": "nonpayable",
      "type": "function"
    },
    {
      "inputs": [
        {
          "internalType": "uint256",
          "name": "",
          "type": "uint256"
        },
        {
          "internalType": "address",
          "name": "",
          "type": "address"
        }
      ],
      "name": "hasVoted",
      "outputs": [
        {
          "internalType": "bool",
          "name": "",
          "type": "bool"
        }
      ],
      "stateMutability": "view",
      "type": "function"
    },
    {
      "inputs": [
        {
          "internalType": "address",
          "name": "",
          "type": "address"
        }
      ],
      "name": "isMember",
      "outputs": [
        {
          "internalType": "bool",
          "name": "",
          "type": "bool"
        }
      ],
      "stateMutability": "view",
      "type": "function"
    },
    {
      "inputs": [],
      "name": "joinGroup",
      "outputs": [],
      "stateMutability": "nonpayable",
      "type": "function"
    },
    {
      "inputs": [],
      "name": "joinGroupAndContribute",
      "outputs": [],
      "stateMutability": "payable",
      "type": "function"
    },
    {
      "inputs": [],
      "name": "memberCount",
      "outputs": [
        {
          "internalType": "uint256",
          "name": "",
          "type": "uint256"
        }
      ],
      "stateMutability": "view",
      "type": "function"
    },
    {
      "inputs": [
        {
          "internalType": "uint256",
          "name": "",
          "type": "uint256"
        }
      ],
      "name": "members",
      "outputs": [
        {
          "internalType": "address",
          "name": "",
          "type": "address"
        }
      ],
      "stateMutability": "view",
      "type": "function"
    },
    {
      "inputs": [],
      "name": "totalPoolBalance",
      "outputs": [
        {
          "internalType": "uint256",
          "name": "",
          "type": "uint256"
        }
      ],
      "stateMutability": "view",
      "type": "function"
    },
    {
      "inputs": [
        {
          "internalType": "uint256",
          "name": "_claimId",
          "type": "uint256"
        }
      ],
      "name": "voteClaim",
      "outputs": [],
      "stateMutability": "nonpayable",
      "type": "function"
    },
    {
      "stateMutability": "payable",
      "type": "receive"
    }
  ],
  "bytecode": "0x608060405234801561001057600080fd5b50336000806101000a81548173ffffffffffffffffffffffffffffffffffffffff021916908373ffffffffffffffffffffffffffffffffffffffff1602179055506001600260003373ffffffffffffffffffffffffffffffffffffffff1673ffffffffffffffffffffffffffffffffffffffff16815260200190815260200160002060006101000a81548160ff0219169083151502179055506003339080600181540180825580915050600190039060005260206000200160009091909190916101000a81548173ffffffffffffffffffffffffffffffffffffffff021916908373ffffffffffffffffffffffffffffffffffffffff16021790555061157f8061011b6000396000f3fe6080604052600436106100ec5760003560e01c80638da4d3c91161008a578063ca6d56dc11610059578063ca6d56dc146102fb578063d7bb99ba14610324578063ee2365361461032e578063f851a440146103595761010b565b80638da4d3c91461023c5780639ac79e0a14610267578063a230c5241461027e578063a888c2cd146102bb5761010b565b806353e65761116100c657806353e65761146101a357806356b8c6c2146101cc5780635daf08ca146101d65780636b6201da146102135761010b565b806311aee38014610110578063438596321461013b5780635026d63e146101785761010b565b3661010b5734600160008282546101039190610f3c565b925050819055005b600080fd5b34801561011c57600080fd5b50610125610384565b6040516101329190610f7f565b60405180910390f35b34801561014757600080fd5b50610162600480360381019061015d9190611029565b610391565b60405161016f9190611084565b60405180910390f35b34801561018457600080fd5b5061018d6103c0565b60405161019a9190610f7f565b60405180910390f35b3480156101af57600080fd5b506101ca60048036038101906101c5919061109f565b6103c6565b005b6101d4610609565b005b3480156101e257600080fd5b506101fd60048036038101906101f8919061109f565b61073b565b60405161020a91906110db565b60405180910390f35b34801561021f57600080fd5b5061023a6004803603810190610235919061109f565b61077a565b005b34801561024857600080fd5b50610251610934565b60405161025e9190610f7f565b60405180910390f35b34801561027357600080fd5b5061027c61093a565b005b34801561028a57600080fd5b506102a560048036038101906102a091906110f6565b610a84565b6040516102b29190611084565b60405180910390f35b3480156102c757600080fd5b506102e260048036038101906102dd919061109f565b610aa4565b6040516102f29493929190611123565b60405180910390f35b34801561030757600080fd5b50610322600480360381019061031d91906110f6565b610b01565b005b61032c610cda565b005b34801561033a57600080fd5b50610343610dc4565b6040516103509190610f7f565b60405180910390f35b34801561036557600080fd5b5061036e610dc9565b60405161037b91906110db565b60405180910390f35b6000600380549050905090565b60056020528160005260406000206020528060005260406000206000915091509054906101000a900460ff1681565b60015481565b600260003373ffffffffffffffffffffffffffffffffffffffff1673ffffffffffffffffffffffffffffffffffffffff16815260200190815260200160002060009054906101000a900460ff16610452576040517f08c379a0000000000000000000000000000000000000000000000000000000008152600401610449906111c5565b60405180910390fd5b60006004600083815260200190815260200160002090508060030160009054906101000a900460ff16156104bb576040517f08c379a00000000000000000000000000000000000000000000000000000000081526004016104b290611231565b60405180910390fd5b6005600083815260200190815260200160002060003373ffffffffffffffffffffffffffffffffffffffff1673ffffffffffffffffffffffffffffffffffffffff16815260200190815260200160002060009054906101000a900460ff1615610559576040517f08c379a00000000000000000000000000000000000000000000000000000000081526004016105509061129d565b60405180910390fd5b60016005600084815260200190815260200160002060003373ffffffffffffffffffffffffffffffffffffffff1673ffffffffffffffffffffffffffffffffffffffff16815260200190815260200160002060006101000a81548160ff0219169083151502179055508060020160008154809291906105d7906112bd565b919050555060026105e6610384565b6105f09190611334565b816002015411156106055761060482610ded565b5b5050565b600260003373ffffffffffffffffffffffffffffffffffffffff1673ffffffffffffffffffffffffffffffffffffffff16815260200190815260200160002060009054906101000a900460ff16610716576001600260003373ffffffffffffffffffffffffffffffffffffffff1673ffffffffffffffffffffffffffffffffffffffff16815260200190815260200160002060006101000a81548160ff0219169083151502179055506003339080600181540180825580915050600190039060005260206000200160009091909190916101000a81548173ffffffffffffffffffffffffffffffffffffffff021916908373ffffffffffffffffffffffffffffffffffffffff1602179055505b60003411156107395734600160008282546107319190610f3c565b925050819055505b565b6003818154811061074b57600080fd5b906000526020600020016000915054906101000a900473ffffffffffffffffffffffffffffffffffffffff1681565b600260003373ffffffffffffffffffffffffffffffffffffffff1673ffffffffffffffffffffffffffffffffffffffff16815260200190815260200160002060009054906101000a900460ff16610806576040517f08c379a00000000000000000000000000000000000000000000000000000000081526004016107fd906111c5565b60405180910390fd5b60015481111561084b576040517f08c379a0000000000000000000000000000000000000000000000000000000008152600401610842906113b1565b60405180910390fd5b60405180608001604052803373ffffffffffffffffffffffffffffffffffffffff168152602001828152602001600081526020016000151581525060046000600654815260200190815260200160002060008201518160000160006101000a81548173ffffffffffffffffffffffffffffffffffffffff021916908373ffffffffffffffffffffffffffffffffffffffff160217905550602082015181600101556040820151816002015560608201518160030160006101000a81548160ff0219169083151502179055509050506006600081548092919061092c906112bd565b919050555050565b60065481565b600260003373ffffffffffffffffffffffffffffffffffffffff1673ffffffffffffffffffffffffffffffffffffffff16815260200190815260200160002060009054906101000a900460ff16156109c7576040517f08c379a00000000000000000000000000000000000000000000000000000000081526004016109be9061141d565b60405180910390fd5b6001600260003373ffffffffffffffffffffffffffffffffffffffff1673ffffffffffffffffffffffffffffffffffffffff16815260200190815260200160002060006101000a81548160ff0219169083151502179055506003339080600181540180825580915050600190039060005260206000200160009091909190916101000a81548173ffffffffffffffffffffffffffffffffffffffff021916908373ffffffffffffffffffffffffffffffffffffffff160217905550565b60026020528060005260406000206000915054906101000a900460ff1681565b60046020528060005260406000206000915090508060000160009054906101000a900473ffffffffffffffffffffffffffffffffffffffff16908060010154908060020154908060030160009054906101000a900460ff16905084565b60008054906101000a900473ffffffffffffffffffffffffffffffffffffffff1673ffffffffffffffffffffffffffffffffffffffff163373ffffffffffffffffffffffffffffffffffffffff1614610b8f576040517f08c379a0000000000000000000000000000000000000000000000000000000008152600401610b8690611489565b60405180910390fd5b600260008273ffffffffffffffffffffffffffffffffffffffff1673ffffffffffffffffffffffffffffffffffffffff16815260200190815260200160002060009054906101000a900460ff1615610c1c576040517f08c379a0000000000000000000000000000000000000000000000000000000008152600401610c139061141d565b60405180910390fd5b6001600260008373ffffffffffffffffffffffffffffffffffffffff1673ffffffffffffffffffffffffffffffffffffffff16815260200190815260200160002060006101000a81548160ff0219169083151502179055506003819080600181540180825580915050600190039060005260206000200160009091909190916101000a81548173ffffffffffffffffffffffffffffffffffffffff021916908373ffffffffffffffffffffffffffffffffffffffff16021790555050565b600260003373ffffffffffffffffffffffffffffffffffffffff1673ffffffffffffffffffffffffffffffffffffffff16815260200190815260200160002060009054906101000a900460ff16610d66576040517f08c379a0000000000000000000000000000000000000000000000000000000008152600401610d5d906111c5565b60405180910390fd5b60003411610da9576040517f08c379a0000000000000000000000000000000000000000000000000000000008152600401610da0906114f5565b60405180910390fd5b3460016000828254610dbb9190610f3c565b92505081905550565b600a81565b60008054906101000a900473ffffffffffffffffffffffffffffffffffffffff1681565b60006004600083815260200190815260200160002090508060030160009054906101000a900460ff1615610e56576040517f08c379a0000000000000000000000000000000000000000000000000000000008152600401610e4d90611231565b60405180910390fd5b60018160030160006101000a81548160ff021916908315150217905550806001015460016000828254610e899190611515565b925050819055508060000160009054906101000a900473ffffffffffffffffffffffffffffffffffffffff1673ffffffffffffffffffffffffffffffffffffffff166108fc82600101549081150290604051600060405180830381858888f19350505050158015610efe573d6000803e3d6000fd5b505050565b6000819050919050565b7f4e487b7100000000000000000000000000000000000000000000000000000000600052601160045260246000fd5b6000610f4782610f03565b9150610f5283610f03565b9250828201905080821115610f6a57610f69610f0d565b5b92915050565b610f7981610f03565b82525050565b6000602082019050610f946000830184610f70565b92915050565b600080fd5b610fa881610f03565b8114610fb357600080fd5b50565b600081359050610fc581610f9f565b92915050565b600073ffffffffffffffffffffffffffffffffffffffff82169050919050565b6000610ff682610fcb565b9050919050565b61100681610feb565b811461101157600080fd5b50565b60008135905061102381610ffd565b92915050565b600080604083850312156110405761103f610f9a565b5b600061104e85828601610fb6565b925050602061105f85828601611014565b9150509250929050565b60008115159050919050565b61107e81611069565b82525050565b60006020820190506110996000830184611075565b92915050565b6000602082840312156110b5576110b4610f9a565b5b60006110c384828501610fb6565b91505092915050565b6110d581610feb565b82525050565b60006020820190506110f060008301846110cc565b92915050565b60006020828403121561110c5761110b610f9a565b5b600061111a84828501611014565b91505092915050565b600060808201905061113860008301876110cc565b6111456020830186610f70565b6111526040830185610f70565b61115f6060830184611075565b95945050505050565b600082825260208201905092915050565b7f4e6f7420612067726f7570206d656d6265720000000000000000000000000000600082015250565b60006111af601283611168565b91506111ba82611179565b602082019050919050565b600060208201905081810360008301526111de816111a2565b9050919050565b7f416c726561647920657865637574656400000000000000000000000000000000600082015250565b600061121b601083611168565b9150611226826111e5565b602082019050919050565b6000602082019050818103600083015261124a8161120e565b9050919050565b7f416c726561647920766f74656400000000000000000000000000000000000000600082015250565b6000611287600d83611168565b915061129282611251565b602082019050919050565b600060208201905081810360008301526112b68161127a565b9050919050565b60006112c882610f03565b91507fffffffffffffffffffffffffffffffffffffffffffffffffffffffffffffffff82036112fa576112f9610f0d565b5b600182019050919050565b7f4e487b7100000000000000000000000000000000000000000000000000000000600052601260045260246000fd5b600061133f82610f03565b915061134a83610f03565b92508261135a57611359611305565b5b828204905092915050565b7f496e73756666696369656e7420706f6f6c2066756e6473000000000000000000600082015250565b600061139b601783611168565b91506113a682611365565b602082019050919050565b600060208201905081810360008301526113ca8161138e565b9050919050565b7f416c7265616479206d656d626572000000000000000000000000000000000000600082015250565b6000611407600e83611168565b9150611412826113d1565b602082019050919050565b60006020820190508181036000830152611436816113fa565b9050919050565b7f4e6f742061646d696e0000000000000000000000000000000000000000000000600082015250565b6000611473600983611168565b915061147e8261143d565b602082019050919050565b600060208201905081810360008301526114a281611466565b9050919050565b7f53656e6420455448000000000000000000000000000000000000000000000000600082015250565b60006114df600883611168565b91506114ea826114a9565b602082019050919050565b6000602082019050818103600083015261150e816114d2565b9050919050565b600061152082610f03565b915061152b83610f03565b925082820390508181111561154357611542610f0d565b5b9291505056fea26469706673582212207499c96416150385583c45b73be437fcc36e0ee24a02362cf237de854fa8b2c364736f6c63430008140033",
  "linkReferences": {},
  "deployedLinkReferences": {}
}