{
  "_format": "hh-sol-artifact-1",
  "contractName": "LoanManager",
  "sourceName": "contracts/LoanManager.sol",
  "abi": [
    {
      "inputs": [
        {
          "internalType": "address",
          "name": "_trustScoreAddress",
          "type": "address"
        }
      ],
      "stateMutability": "nonpayable",
      "type": "constructor"
    },
    {
      "anonymous": false,
      "inputs": [
        {
          "indexed": false,
          "internalType": "uint256",
          "name": "loanId",
          "type": "uint256"
        },
        {
          "indexed": false,
          "internalType": "address",
          "name": "borrower",
          "type": "address"
        }
      ],
      "name": "LoanDefaulted",
      "type": "event"
    },
    {
      "anonymous": false,
      "inputs": [
        {
          "indexed": false,
          "internalType": "uint256",
          "name": "loanId",
          "type": "uint256"
        },
        {
          "indexed": false,
          "internalType": "address",
          "name": "lender",
          "type": "address"
        }
      ],
      "name": "LoanFunded",
      "type": "event"
    },
    {
      "anonymous": false,
      "inputs": [
        {
          "indexed": false,
          "internalType": "uint256",
          "name": "loanId",
          "type": "uint256"
        },
        {
          "indexed": false,
          "internalType": "uint256",
          "name": "totalRepaid",
          "type": "uint256"
        },
        {
          "indexed": false,
          "internalType": "uint256",
          "name": "interest",
          "type": "uint256"
        }
      ],
      "name": "LoanRepaid",
      "type": "event"
    },
    {
      "anonymous": false,
      "inputs": [
        {
          "indexed": false,
          "internalType": "uint256",
          "name": "loanId",
          "type": "uint256"
        },
        {
          "indexed": false,
          "internalType": "address",
          "name": "borrower",
          "type": "address"
        },
        {
          "indexed": false,
          "internalType": "uint256",
          "name": "amount",
          "type": "uint256"
        },
        {
          "indexed": false,
          "internalType": "uint256",
          "name": "interestRate",
          "type": "uint256"
        }
      ],
      "name": "LoanRequested",
      "type": "event"
    },
    {
      "anonymous": false,
      "inputs": [
        {
          "indexed": false,
          "internalType": "uint256",
          "name": "loanId",
          "type": "uint256"
        }
      ],
      "name": "LoanWithdrawn",
      "type": "event"
    },
    {
      "anonymous": false,
      "inputs": [
        {
          "indexed": false,
          "internalType": "uint256",
          "name": "newScore",
          "type": "uint256"
        }
      ],
      "name": "MinTrustScoreUpdated",
      "type": "event"
    },
    {
      "anonymous": false,
      "inputs": [
        {
          "indexed": false,
          "internalType": "address",
          "name": "borrower",
          "type": "address"
        },
        {
          "indexed": false,
          "internalType": "uint256",
          "name": "amount",
          "type": "uint256"
        }
      ],
      "name": "TrustScoreDecreased",
      "type": "event"
    },
    {
      "anonymous": false,
      "inputs": [
        {
          "indexed": false,
          "internalType": "address",
          "name": "borrower",
          "type": "address"
        },
        {
          "indexed": false,
          "internalType": "uint256",
          "name": "amount",
          "type": "uint256"
        }
      ],
      "name": "TrustScoreIncreased",
      "type": "event"
    },
    {
      "inputs": [],
      "name": "admin",
      "outputs": [
        {
          "internalType": "address",
          "name": "",
          "type": "address"
        }
      ],
      "stateMutability": "view",
      "type": "function"
    },
    {
      "inputs": [
        {
          "internalType": "uint256",
          "name": "loanId",
          "type": "uint256"
        }
      ],
      "name": "calculateRepayment",
      "outputs": [
        {
          "internalType": "uint256",
          "name": "",
          "type": "uint256"
        }
      ],
      "stateMutability": "view",
      "type": "function"
    },
    {
      "inputs": [
        {
          "internalType": "uint256",
          "name": "amount",
          "type": "uint256"
        },
        {
          "internalType": "uint256",
          "name": "duration",
          "type": "uint256"
        }
      ],
      "name": "createLoan",
      "outputs": [],
      "stateMutability": "nonpayable",
      "type": "function"
    },
    {
      "inputs": [],
      "name": "defaultPenalty",
      "outputs": [
        {
          "internalType": "uint256",
          "name": "",
          "type": "uint256"
        }
      ],
      "stateMutability": "view",
      "type": "function"
    },
    {
      "inputs": [
        {
          "internalType": "uint256",
          "name": "loanId",
          "type": "uint256"
        }
      ],
      "name": "fundLoan",
      "outputs": [],
      "stateMutability": "payable",
      "type": "function"
    },
    {
      "inputs": [
        {
          "internalType": "uint256",
          "name": "trustScore",
          "type": "uint256"
        }
      ],
      "name": "getInterestRate",
      "outputs": [
        {
          "internalType": "uint256",
          "name": "",
          "type": "uint256"
        }
      ],
      "stateMutability": "pure",
      "type": "function"
    },
    {
      "inputs": [],
      "name": "getLoans",
      "outputs": [
        {
          "components": [
            {
              "internalType": "address",
              "name": "borrower",
              "type": "address"
            },
            {
              "internalType": "address",
              "name": "lender",
              "type": "address"
            },
            {
              "internalType": "uint256",
              "name": "amount",
              "type": "uint256"
            },
            {
              "internalType": "uint256",
              "name": "interestRate",
              "type": "uint256"
            },
            {
              "internalType": "uint256",
              "name": "duration",
              "type": "uint256"
            },
            {
              "internalType": "uint256",
              "name": "createdAt",
              "type": "uint256"
            },
            {
              "internalType": "bool",
              "name": "funded",
              "type": "bool"
            },
            {
              "internalType": "bool",
              "name": "repaid",
              "type": "bool"
            },
            {
              "internalType": "bool",
              "name": "withdrawn",
              "type": "bool"
            },
            {
              "internalType": "bool",
              "name": "defaulted",
              "type": "bool"
            }
          ],
          "internalType": "struct LoanManager.Loan[]",
          "name": "",
          "type": "tuple[]"
        }
      ],
      "stateMutability": "view",
      "type": "function"
    },
    {
      "inputs": [
        {
          "internalType": "uint256",
          "name": "loanId",
          "type": "uint256"
        }
      ],
      "name": "isLoanOverdue",
      "outputs": [
        {
          "internalType": "bool",
          "name": "",
          "type": "bool"
        }
      ],
      "stateMutability": "view",
      "type": "function"
    },
    {
      "inputs": [
        {
          "internalType": "uint256",
          "name": "",
          "type": "uint256"
        }
      ],
      "name": "loans",
      "outputs": [
        {
          "internalType": "address",
          "name": "borrower",
          "type": "address"
        },
        {
          "internalType": "address",
          "name": "lender",
          "type": "address"
        },
        {
          "internalType": "uint256",
          "name": "amount",
          "type": "uint256"
        },
        {
          "internalType": "uint256",
          "name": "interestRate",
          "type": "uint256"
        },
        {
          "internalType": "uint256",
          "name": "duration",
          "type": "uint256"
        },
        {
          "internalType": "uint256",
          "name": "createdAt",
          "type": "uint256"
        },
        {
          "internalType": "bool",
          "name": "funded",
          "type": "bool"
        },
        {
          "internalType": "bool",
          "name": "repaid",
          "type": "bool"
        },
        {
          "internalType": "bool",
          "name": "withdrawn",
          "type": "bool"
        },
        {
          "internalType": "bool",
          "name": "defaulted",
          "type": "bool"
        }
      ],
      "stateMutability": "view",
      "type": "function"
    },
    {
      "inputs": [
        {
          "internalType": "uint256",
          "name": "loanId",
          "type": "uint256"
        }
      ],
      "name": "markLoanDefaulted",
      "outputs": [],
      "stateMutability": "nonpayable",
      "type": "function"
    },
    {
      "inputs": [],
      "name": "minTrustScore",
      "outputs": [
        {
          "internalType": "uint256",
          "name": "",
          "type": "uint256"
        }
      ],
      "stateMutability": "view",
      "type": "function"
    },
    {
      "inputs": [
        {
          "internalType": "uint256",
          "name": "loanId",
          "type": "uint256"
        }
      ],
      "name": "repayLoan",
      "outputs": [],
      "stateMutability": "payable",
      "type": "function"
    },
    {
      "inputs": [],
      "name": "repaymentBonus",
      "outputs": [
        {
          "internalType": "uint256",
          "name": "",
          "type": "uint256"
        }
      ],
      "stateMutability": "view",
      "type": "function"
    },
    {
      "inputs": [
        {
          "internalType": "uint256",
          "name": "_penalty",
          "type": "uint256"
        }
      ],
      "name": "setDefaultPenalty",
      "outputs": [],
      "stateMutability": "nonpayable",
      "type": "function"
    },
    {
      "inputs": [
        {
          "internalType": "uint256",
          "name": "_minScore",
          "type": "uint256"
        }
      ],
      "name": "setMinTrustScore",
      "outputs": [],
      "stateMutability": "nonpayable",
      "type": "function"
    },
    {
      "inputs": [
        {
          "internalType": "uint256",
          "name": "_bonus",
          "type": "uint256"
        }
      ],
      "name": "setRepaymentBonus",
      "outputs": [],
      "stateMutability": "nonpayable",
      "type": "function"
    },
    {
      "inputs": [],
      "name": "trustScoreContract",
      "outputs": [
        {
          "internalType": "contract ITrustScore",
          "name": "",
          "type": "address"
        }
      ],
      "stateMutability": "view",
      "type": "function"
    },
    {
      "inputs": [
        {
          "internalType": "uint256",
          "name": "loanId",
          "type": "uint256"
        }
      ],
      "name": "withdrawLoan",
      "outputs": [],
      "stateMutability": "nonpayable",
      "type": "function"
    }
  ],
  "bytecode": "0x60806040526005600355600a6004553480156200001b57600080fd5b5060405162002d9238038062002d9283398181016040528101906200004191906200013b565b806000806101000a81548173ffffffffffffffffffffffffffffffffffffffff021916908373ffffffffffffffffffffffffffffffffffffffff16021790555033600160006101000a81548173ffffffffffffffffffffffffffffffffffffffff021916908373ffffffffffffffffffffffffffffffffffffffff1602179055506028600281905550506200016d565b600080fd5b600073ffffffffffffffffffffffffffffffffffffffff82169050919050565b60006200010382620000d6565b9050919050565b6200011581620000f6565b81146200012157600080fd5b50565b60008151905062000135816200010a565b92915050565b600060208284031215620001545762000153620000d1565b5b6000620001648482850162000124565b91505092915050565b612c15806200017d6000396000f3fe6080604052600436106101095760003560e01c806398cd90b511610095578063dc7831fd11610064578063dc7831fd14610339578063ddc2707f14610364578063e1ec3c681461038d578063f851a440146103d3578063feb569e5146103fe57610109565b806398cd90b5146102a0578063aa4a8711146102c9578063ab7b1c89146102f4578063d92d7d771461031057610109565b80633b498602116100dc5780633b498602146101c657806353f0366c1461020357806382cc51df1461022e578063846b909a14610259578063859d448c1461027557610109565b806308fd384d1461010e5780630c196a74146101375780632a104d8d146101745780632b6c1d3a1461019d575b600080fd5b34801561011a57600080fd5b5061013560048036038101906101309190611dd4565b61043b565b005b34801561014357600080fd5b5061015e60048036038101906101599190611dd4565b610550565b60405161016b9190611e10565b60405180910390f35b34801561018057600080fd5b5061019b60048036038101906101969190611dd4565b6105a5565b005b3480156101a957600080fd5b506101c460048036038101906101bf9190611dd4565b6107a3565b005b3480156101d257600080fd5b506101ed60048036038101906101e89190611dd4565b61083d565b6040516101fa9190611e46565b60405180910390f35b34801561020f57600080fd5b506102186109fe565b6040516102259190611e10565b60405180910390f35b34801561023a57600080fd5b50610243610a04565b6040516102509190611e10565b60405180910390f35b610273600480360381019061026e9190611dd4565b610a0a565b005b34801561028157600080fd5b5061028a610b65565b6040516102979190611e10565b60405180910390f35b3480156102ac57600080fd5b506102c760048036038101906102c29190611e61565b610b6b565b005b3480156102d557600080fd5b506102de610e94565b6040516102eb919061207c565b60405180910390f35b61030e60048036038101906103099190611dd4565b611034565b005b34801561031c57600080fd5b5061033760048036038101906103329190611dd4565b6115f1565b005b34801561034557600080fd5b5061034e611a2c565b60405161035b91906120fd565b60405180910390f35b34801561037057600080fd5b5061038b60048036038101906103869190611dd4565b611a50565b005b34801561039957600080fd5b506103b460048036038101906103af9190611dd4565b611aea565b6040516103ca9a99989796959493929190612127565b60405180910390f35b3480156103df57600080fd5b506103e8611bc2565b6040516103f591906121c3565b60405180910390f35b34801561040a57600080fd5b5061042560048036038101906104209190611dd4565b611be8565b6040516104329190611e10565b60405180910390f35b600160009054906101000a900473ffffffffffffffffffffffffffffffffffffffff1673ffffffffffffffffffffffffffffffffffffffff163373ffffffffffffffffffffffffffffffffffffffff16146104cb576040517f08c379a00000000000000000000000000000000000000000000000000000000081526004016104c290612261565b60405180910390fd5b606481111561050f576040517f08c379a0000000000000000000000000000000000000000000000000000000008152600401610506906122cd565b60405180910390fd5b806002819055507f6f7ec9336d4e6a1657c362f72bfa9b5b432d96425b4111b4498eb71d691d6976816040516105459190611e10565b60405180910390a150565b6000605a82106105645761012c90506105a0565b604b8210610576576101f490506105a0565b603c82106105885761032090506105a0565b6032821061059a576104b090506105a0565b6105dc90505b919050565b6000600582815481106105bb576105ba6122ed565b5b906000526020600020906007020190508060000160009054906101000a900473ffffffffffffffffffffffffffffffffffffffff1673ffffffffffffffffffffffffffffffffffffffff163373ffffffffffffffffffffffffffffffffffffffff161461065d576040517f08c379a000000000000000000000000000000000000000000000000000000000815260040161065490612368565b60405180910390fd5b8060060160009054906101000a900460ff166106ae576040517f08c379a00000000000000000000000000000000000000000000000000000000081526004016106a5906123d4565b60405180910390fd5b8060060160029054906101000a900460ff1615610700576040517f08c379a00000000000000000000000000000000000000000000000000000000081526004016106f790612440565b60405180910390fd5b60018160060160026101000a81548160ff0219169083151502179055503373ffffffffffffffffffffffffffffffffffffffff166108fc82600201549081150290604051600060405180830381858888f19350505050158015610767573d6000803e3d6000fd5b507f80d20af2588d80a09297ff6168a12b09b961c8034b35de8001af787cc6d57bdb826040516107979190611e10565b60405180910390a15050565b600160009054906101000a900473ffffffffffffffffffffffffffffffffffffffff1673ffffffffffffffffffffffffffffffffffffffff163373ffffffffffffffffffffffffffffffffffffffff1614610833576040517f08c379a000000000000000000000000000000000000000000000000000000000815260040161082a906124ac565b60405180910390fd5b8060048190555050565b60008060058381548110610854576108536122ed565b5b9060005260206000209060070201604051806101400160405290816000820160009054906101000a900473ffffffffffffffffffffffffffffffffffffffff1673ffffffffffffffffffffffffffffffffffffffff1673ffffffffffffffffffffffffffffffffffffffff1681526020016001820160009054906101000a900473ffffffffffffffffffffffffffffffffffffffff1673ffffffffffffffffffffffffffffffffffffffff1673ffffffffffffffffffffffffffffffffffffffff168152602001600282015481526020016003820154815260200160048201548152602001600582015481526020016006820160009054906101000a900460ff161515151581526020016006820160019054906101000a900460ff161515151581526020016006820160029054906101000a900460ff161515151581526020016006820160039054906101000a900460ff161515151581525050905080610100015115806109c357508060e001515b806109d057508061012001515b156109df5760009150506109f9565b80608001518160a001516109f391906124fb565b42119150505b919050565b60045481565b60035481565b600060058281548110610a2057610a1f6122ed565b5b906000526020600020906007020190508060060160009054906101000a900460ff1615610a82576040517f08c379a0000000000000000000000000000000000000000000000000000000008152600401610a799061257b565b60405180910390fd5b80600201543414610ac8576040517f08c379a0000000000000000000000000000000000000000000000000000000008152600401610abf906125e7565b60405180910390fd5b338160010160006101000a81548173ffffffffffffffffffffffffffffffffffffffff021916908373ffffffffffffffffffffffffffffffffffffffff16021790555060018160060160006101000a81548160ff0219169083151502179055507f15feab5d3eb17171632762cf769709a315dd15f487a556c0dfb8a259c8f186cc8233604051610b59929190612607565b60405180910390a15050565b60025481565b60008060009054906101000a900473ffffffffffffffffffffffffffffffffffffffff1673ffffffffffffffffffffffffffffffffffffffff1663d47875d0336040518263ffffffff1660e01b8152600401610bc791906121c3565b602060405180830381865afa158015610be4573d6000803e3d6000fd5b505050506040513d601f19601f82011682018060405250810190610c089190612645565b9050600254811015610c4f576040517f08c379a0000000000000000000000000000000000000000000000000000000008152600401610c46906126be565b60405180910390fd5b6000610c5a82610550565b905060056040518061014001604052803373ffffffffffffffffffffffffffffffffffffffff168152602001600073ffffffffffffffffffffffffffffffffffffffff16815260200186815260200183815260200185815260200142815260200160001515815260200160001515815260200160001515815260200160001515815250908060018154018082558091505060019003906000526020600020906007020160009091909190915060008201518160000160006101000a81548173ffffffffffffffffffffffffffffffffffffffff021916908373ffffffffffffffffffffffffffffffffffffffff16021790555060208201518160010160006101000a81548173ffffffffffffffffffffffffffffffffffffffff021916908373ffffffffffffffffffffffffffffffffffffffff16021790555060408201518160020155606082015181600301556080820151816004015560a0820151816005015560c08201518160060160006101000a81548160ff02191690831515021790555060e08201518160060160016101000a81548160ff0219169083151502179055506101008201518160060160026101000a81548160ff0219169083151502179055506101208201518160060160036101000a81548160ff02191690831515021790555050507f68595dbe887ae7f496f2c88735019a8918919a1decfdee6bdb460480ab87decb6001600580549050610e7391906126de565b338684604051610e869493929190612712565b60405180910390a150505050565b60606005805480602002602001604051908101604052809291908181526020016000905b8282101561102b5783829060005260206000209060070201604051806101400160405290816000820160009054906101000a900473ffffffffffffffffffffffffffffffffffffffff1673ffffffffffffffffffffffffffffffffffffffff1673ffffffffffffffffffffffffffffffffffffffff1681526020016001820160009054906101000a900473ffffffffffffffffffffffffffffffffffffffff1673ffffffffffffffffffffffffffffffffffffffff1673ffffffffffffffffffffffffffffffffffffffff168152602001600282015481526020016003820154815260200160048201548152602001600582015481526020016006820160009054906101000a900460ff161515151581526020016006820160019054906101000a900460ff161515151581526020016006820160029054906101000a900460ff161515151581526020016006820160039054906101000a900460ff16151515158152505081526020019060010190610eb8565b50505050905090565b60006005828154811061104a576110496122ed565b5b906000526020600020906007020190508060000160009054906101000a900473ffffffffffffffffffffffffffffffffffffffff1673ffffffffffffffffffffffffffffffffffffffff163373ffffffffffffffffffffffffffffffffffffffff16146110ec576040517f08c379a00000000000000000000000000000000000000000000000000000000081526004016110e390612368565b60405180910390fd5b8060060160029054906101000a900460ff1661113d576040517f08c379a0000000000000000000000000000000000000000000000000000000008152600401611134906127a3565b60405180910390fd5b8060060160019054906101000a900460ff161561118f576040517f08c379a00000000000000000000000000000000000000000000000000000000081526004016111869061280f565b60405180910390fd5b8060060160039054906101000a900460ff16156111e1576040517f08c379a00000000000000000000000000000000000000000000000000000000081526004016111d89061287b565b60405180910390fd5b600073ffffffffffffffffffffffffffffffffffffffff168160010160009054906101000a900473ffffffffffffffffffffffffffffffffffffffff1673ffffffffffffffffffffffffffffffffffffffff1603611274576040517f08c379a000000000000000000000000000000000000000000000000000000000815260040161126b906128e7565b60405180910390fd5b600061127f83611be8565b9050803410156112c4576040517f08c379a00000000000000000000000000000000000000000000000000000000081526004016112bb90612953565b60405180910390fd5b60008260020154826112d691906126de565b90508260010160009054906101000a900473ffffffffffffffffffffffffffffffffffffffff1673ffffffffffffffffffffffffffffffffffffffff166108fc839081150290604051600060405180830381858888f19350505050158015611342573d6000803e3d6000fd5b5060018360060160016101000a81548160ff02191690831515021790555060008060009054906101000a900473ffffffffffffffffffffffffffffffffffffffff1673ffffffffffffffffffffffffffffffffffffffff1663d47875d08560000160009054906101000a900473ffffffffffffffffffffffffffffffffffffffff166040518263ffffffff1660e01b81526004016113e091906121c3565b602060405180830381865afa1580156113fd573d6000803e3d6000fd5b505050506040513d601f19601f820116820180604052508101906114219190612645565b905060006003548261143391906124fb565b9050606481111561144357606490505b60008054906101000a900473ffffffffffffffffffffffffffffffffffffffff1673ffffffffffffffffffffffffffffffffffffffff166365d977248660000160009054906101000a900473ffffffffffffffffffffffffffffffffffffffff16836040518363ffffffff1660e01b81526004016114c2929190612973565b600060405180830381600087803b1580156114dc57600080fd5b505af11580156114f0573d6000803e3d6000fd5b505050507fd9cfbcfb9ae5d65b8d34072de4575f602ee25cf3715bc05c291701fe9e258f9a8685856040516115279392919061299c565b60405180910390a17f690b4ce3d419fb57fc3f5370df8952c41515dee0420fbebf6f582937e2fdd6e08560000160009054906101000a900473ffffffffffffffffffffffffffffffffffffffff16600354604051611586929190612973565b60405180910390a1833411156115e9573373ffffffffffffffffffffffffffffffffffffffff166108fc85346115bc91906126de565b9081150290604051600060405180830381858888f193505050501580156115e7573d6000803e3d6000fd5b505b505050505050565b600060058281548110611607576116066122ed565b5b906000526020600020906007020190508060060160039054906101000a900460ff1615801561164557508060060160019054906101000a900460ff16155b611684576040517f08c379a000000000000000000000000000000000000000000000000000000000815260040161167b90612a1f565b60405180910390fd5b61168d8261083d565b6116cc576040517f08c379a00000000000000000000000000000000000000000000000000000000081526004016116c390612a8b565b60405180910390fd5b8060010160009054906101000a900473ffffffffffffffffffffffffffffffffffffffff1673ffffffffffffffffffffffffffffffffffffffff163373ffffffffffffffffffffffffffffffffffffffff1614806117775750600160009054906101000a900473ffffffffffffffffffffffffffffffffffffffff1673ffffffffffffffffffffffffffffffffffffffff163373ffffffffffffffffffffffffffffffffffffffff16145b6117b6576040517f08c379a00000000000000000000000000000000000000000000000000000000081526004016117ad90612b1d565b60405180910390fd5b60018160060160036101000a81548160ff02191690831515021790555060008060009054906101000a900473ffffffffffffffffffffffffffffffffffffffff1673ffffffffffffffffffffffffffffffffffffffff1663d47875d08360000160009054906101000a900473ffffffffffffffffffffffffffffffffffffffff166040518263ffffffff1660e01b815260040161185391906121c3565b602060405180830381865afa158015611870573d6000803e3d6000fd5b505050506040513d601f19601f820116820180604052508101906118949190612645565b9050600060045482116118a85760006118b7565b600454826118b691906126de565b5b905060008054906101000a900473ffffffffffffffffffffffffffffffffffffffff1673ffffffffffffffffffffffffffffffffffffffff166365d977248460000160009054906101000a900473ffffffffffffffffffffffffffffffffffffffff16836040518363ffffffff1660e01b8152600401611938929190612973565b600060405180830381600087803b15801561195257600080fd5b505af1158015611966573d6000803e3d6000fd5b505050507f13b88e6866f0156d706fecfa22b678de5fc2b749c1d2307f6f47eb541385f1ec848460000160009054906101000a900473ffffffffffffffffffffffffffffffffffffffff166040516119bf929190612607565b60405180910390a17f0e91ab9bf75353d4c44cc2921e3cdcbcafe51ef2598966d389e756396c39a7ad8360000160009054906101000a900473ffffffffffffffffffffffffffffffffffffffff16600454604051611a1e929190612973565b60405180910390a150505050565b60008054906101000a900473ffffffffffffffffffffffffffffffffffffffff1681565b600160009054906101000a900473ffffffffffffffffffffffffffffffffffffffff1673ffffffffffffffffffffffffffffffffffffffff163373ffffffffffffffffffffffffffffffffffffffff1614611ae0576040517f08c379a0000000000000000000000000000000000000000000000000000000008152600401611ad7906124ac565b60405180910390fd5b8060038190555050565b60058181548110611afa57600080fd5b90600052602060002090600702016000915090508060000160009054906101000a900473ffffffffffffffffffffffffffffffffffffffff16908060010160009054906101000a900473ffffffffffffffffffffffffffffffffffffffff16908060020154908060030154908060040154908060050154908060060160009054906101000a900460ff16908060060160019054906101000a900460ff16908060060160029054906101000a900460ff16908060060160039054906101000a900460ff1690508a565b600160009054906101000a900473ffffffffffffffffffffffffffffffffffffffff1681565b60008060058381548110611bff57611bfe6122ed565b5b9060005260206000209060070201604051806101400160405290816000820160009054906101000a900473ffffffffffffffffffffffffffffffffffffffff1673ffffffffffffffffffffffffffffffffffffffff1673ffffffffffffffffffffffffffffffffffffffff1681526020016001820160009054906101000a900473ffffffffffffffffffffffffffffffffffffffff1673ffffffffffffffffffffffffffffffffffffffff1673ffffffffffffffffffffffffffffffffffffffff168152602001600282015481526020016003820154815260200160048201548152602001600582015481526020016006820160009054906101000a900460ff161515151581526020016006820160019054906101000a900460ff161515151581526020016006820160029054906101000a900460ff161515151581526020016006820160039054906101000a900460ff1615151515815250509050600061271082606001518360400151611d749190612b3d565b611d7e9190612bae565b9050808260400151611d9091906124fb565b92505050919050565b600080fd5b6000819050919050565b611db181611d9e565b8114611dbc57600080fd5b50565b600081359050611dce81611da8565b92915050565b600060208284031215611dea57611de9611d99565b5b6000611df884828501611dbf565b91505092915050565b611e0a81611d9e565b82525050565b6000602082019050611e256000830184611e01565b92915050565b60008115159050919050565b611e4081611e2b565b82525050565b6000602082019050611e5b6000830184611e37565b92915050565b60008060408385031215611e7857611e77611d99565b5b6000611e8685828601611dbf565b9250506020611e9785828601611dbf565b9150509250929050565b600081519050919050565b600082825260208201905092915050565b6000819050602082019050919050565b600073ffffffffffffffffffffffffffffffffffffffff82169050919050565b6000611ef882611ecd565b9050919050565b611f0881611eed565b82525050565b611f1781611d9e565b82525050565b611f2681611e2b565b82525050565b61014082016000820151611f436000850182611eff565b506020820151611f566020850182611eff565b506040820151611f696040850182611f0e565b506060820151611f7c6060850182611f0e565b506080820151611f8f6080850182611f0e565b5060a0820151611fa260a0850182611f0e565b5060c0820151611fb560c0850182611f1d565b5060e0820151611fc860e0850182611f1d565b50610100820151611fdd610100850182611f1d565b50610120820151611ff2610120850182611f1d565b50505050565b60006120048383611f2c565b6101408301905092915050565b6000602082019050919050565b600061202982611ea1565b6120338185611eac565b935061203e83611ebd565b8060005b8381101561206f5781516120568882611ff8565b975061206183612011565b925050600181019050612042565b5085935050505092915050565b60006020820190508181036000830152612096818461201e565b905092915050565b6000819050919050565b60006120c36120be6120b984611ecd565b61209e565b611ecd565b9050919050565b60006120d5826120a8565b9050919050565b60006120e7826120ca565b9050919050565b6120f7816120dc565b82525050565b600060208201905061211260008301846120ee565b92915050565b61212181611eed565b82525050565b60006101408201905061213d600083018d612118565b61214a602083018c612118565b612157604083018b611e01565b612164606083018a611e01565b6121716080830189611e01565b61217e60a0830188611e01565b61218b60c0830187611e37565b61219860e0830186611e37565b6121a6610100830185611e37565b6121b4610120830184611e37565b9b9a5050505050505050505050565b60006020820190506121d86000830184612118565b92915050565b600082825260208201905092915050565b7f4f6e6c792061646d696e2063616e20736574206d696e696d756d20747275737460008201527f2073636f72650000000000000000000000000000000000000000000000000000602082015250565b600061224b6026836121de565b9150612256826121ef565b604082019050919050565b6000602082019050818103600083015261227a8161223e565b9050919050565b7f53636f7265206d75737420626520302d31303000000000000000000000000000600082015250565b60006122b76013836121de565b91506122c282612281565b602082019050919050565b600060208201905081810360008301526122e6816122aa565b9050919050565b7f4e487b7100000000000000000000000000000000000000000000000000000000600052603260045260246000fd5b7f4e6f7420626f72726f7765720000000000000000000000000000000000000000600082015250565b6000612352600c836121de565b915061235d8261231c565b602082019050919050565b6000602082019050818103600083015261238181612345565b9050919050565b7f4c6f616e206e6f742066756e6465640000000000000000000000000000000000600082015250565b60006123be600f836121de565b91506123c982612388565b602082019050919050565b600060208201905081810360008301526123ed816123b1565b9050919050565b7f416c72656164792077697468647261776e000000000000000000000000000000600082015250565b600061242a6011836121de565b9150612435826123f4565b602082019050919050565b600060208201905081810360008301526124598161241d565b9050919050565b7f4f6e6c792061646d696e00000000000000000000000000000000000000000000600082015250565b6000612496600a836121de565b91506124a182612460565b602082019050919050565b600060208201905081810360008301526124c581612489565b9050919050565b7f4e487b7100000000000000000000000000000000000000000000000000000000600052601160045260246000fd5b600061250682611d9e565b915061251183611d9e565b9250828201905080821115612529576125286124cc565b5b92915050565b7f416c72656164792066756e646564000000000000000000000000000000000000600082015250565b6000612565600e836121de565b91506125708261252f565b602082019050919050565b6000602082019050818103600083015261259481612558565b9050919050565b7f496e636f72726563742045544820616d6f756e74000000000000000000000000600082015250565b60006125d16014836121de565b91506125dc8261259b565b602082019050919050565b60006020820190508181036000830152612600816125c4565b9050919050565b600060408201905061261c6000830185611e01565b6126296020830184612118565b9392505050565b60008151905061263f81611da8565b92915050565b60006020828403121561265b5761265a611d99565b5b600061266984828501612630565b91505092915050565b7f54727573742073636f726520746f6f206c6f7700000000000000000000000000600082015250565b60006126a86013836121de565b91506126b382612672565b602082019050919050565b600060208201905081810360008301526126d78161269b565b9050919050565b60006126e982611d9e565b91506126f483611d9e565b925082820390508181111561270c5761270b6124cc565b5b92915050565b60006080820190506127276000830187611e01565b6127346020830186612118565b6127416040830185611e01565b61274e6060830184611e01565b95945050505050565b7f4c6f616e206e6f742077697468647261776e0000000000000000000000000000600082015250565b600061278d6012836121de565b915061279882612757565b602082019050919050565b600060208201905081810360008301526127bc81612780565b9050919050565b7f416c726561647920726570616964000000000000000000000000000000000000600082015250565b60006127f9600e836121de565b9150612804826127c3565b602082019050919050565b60006020820190508181036000830152612828816127ec565b9050919050565b7f4c6f616e2069732064656661756c746564000000000000000000000000000000600082015250565b60006128656011836121de565b91506128708261282f565b602082019050919050565b6000602082019050818103600083015261289481612858565b9050919050565b7f496e76616c6964206c656e646572206164647265737300000000000000000000600082015250565b60006128d16016836121de565b91506128dc8261289b565b602082019050919050565b60006020820190508181036000830152612900816128c4565b9050919050565b7f496e73756666696369656e742072657061796d656e7420616d6f756e74000000600082015250565b600061293d601d836121de565b915061294882612907565b602082019050919050565b6000602082019050818103600083015261296c81612930565b9050919050565b60006040820190506129886000830185612118565b6129956020830184611e01565b9392505050565b60006060820190506129b16000830186611e01565b6129be6020830185611e01565b6129cb6040830184611e01565b949350505050565b7f4c6f616e20616c72656164792066696e616c697a656400000000000000000000600082015250565b6000612a096016836121de565b9150612a14826129d3565b602082019050919050565b60006020820190508181036000830152612a38816129fc565b9050919050565b7f4c6f616e206973206e6f74206f76657264756500000000000000000000000000600082015250565b6000612a756013836121de565b9150612a8082612a3f565b602082019050919050565b60006020820190508181036000830152612aa481612a68565b9050919050565b7f4f6e6c79206c656e646572206f722061646d696e2063616e206d61726b20646560008201527f6661756c74000000000000000000000000000000000000000000000000000000602082015250565b6000612b076025836121de565b9150612b1282612aab565b604082019050919050565b60006020820190508181036000830152612b3681612afa565b9050919050565b6000612b4882611d9e565b9150612b5383611d9e565b9250828202612b6181611d9e565b91508282048414831517612b7857612b776124cc565b5b5092915050565b7f4e487b7100000000000000000000000000000000000000000000000000000000600052601260045260246000fd5b6000612bb982611d9e565b9150612bc483611d9e565b925082612bd457612bd3612b7f565b5b82820490509291505056fea264697066735822122020d11c75b57453b053aac555b1b0c08658ac115c6528589588ae613ddde7bd6064736f6c63430008140033",
  "linkReferences": {},
  "deployedLinkReferences": {}
}