{
  "_format": "hh-sol-artifact-1",
  "contractName": "LoanManager",
  "sourceName": "contracts/LoanManager.sol",
  "abi": [
    {
      "inputs": [
        {
          "internalType": "address",
          "name": "_trustScoreAddress",
          "type": "address"
        }
      ],
      "stateMutability": "nonpayable",
      "type": "constructor"
    },
    {
      "anonymous": false,
      "inputs": [
        {
          "indexed": false,
          "internalType": "uint256",
          "name": "loanId",
          "type": "uint256"
        },
        {
          "indexed": false,
          "internalType": "address",
          "name": "lender",
          "type": "address"
        }
      ],
      "name": "LoanFunded",
      "type": "event"
    },
    {
      "anonymous": false,
      "inputs": [
        {
          "indexed": false,
          "internalType": "uint256",
          "name": "loanId",
          "type": "uint256"
        }
      ],
      "name": "LoanRepaid",
      "type": "event"
    },
    {
      "anonymous": false,
      "inputs": [
        {
          "indexed": false,
          "internalType": "uint256",
          "name": "loanId",
          "type": "uint256"
        },
        {
          "indexed": false,
          "internalType": "address",
          "name": "borrower",
          "type": "address"
        },
        {
          "indexed": false,
          "internalType": "uint256",
          "name": "amount",
          "type": "uint256"
        }
      ],
      "name": "LoanRequested",
      "type": "event"
    },
    {
      "anonymous": false,
      "inputs": [
        {
          "indexed": false,
          "internalType": "uint256",
          "name": "loanId",
          "type": "uint256"
        }
      ],
      "name": "LoanWithdrawn",
      "type": "event"
    },
    {
      "inputs": [
        {
          "internalType": "uint256",
          "name": "amount",
          "type": "uint256"
        },
        {
          "internalType": "uint256",
          "name": "duration",
          "type": "uint256"
        }
      ],
      "name": "createLoan",
      "outputs": [],
      "stateMutability": "nonpayable",
      "type": "function"
    },
    {
      "inputs": [
        {
          "internalType": "uint256",
          "name": "loanId",
          "type": "uint256"
        }
      ],
      "name": "fundLoan",
      "outputs": [],
      "stateMutability": "payable",
      "type": "function"
    },
    {
      "inputs": [],
      "name": "getLoans",
      "outputs": [
        {
          "components": [
            {
              "internalType": "address",
              "name": "borrower",
              "type": "address"
            },
            {
              "internalType": "address",
              "name": "lender",
              "type": "address"
            },
            {
              "internalType": "uint256",
              "name": "amount",
              "type": "uint256"
            },
            {
              "internalType": "uint256",
              "name": "duration",
              "type": "uint256"
            },
            {
              "internalType": "uint256",
              "name": "createdAt",
              "type": "uint256"
            },
            {
              "internalType": "bool",
              "name": "funded",
              "type": "bool"
            },
            {
              "internalType": "bool",
              "name": "repaid",
              "type": "bool"
            },
            {
              "internalType": "bool",
              "name": "withdrawn",
              "type": "bool"
            }
          ],
          "internalType": "struct LoanManager.Loan[]",
          "name": "",
          "type": "tuple[]"
        }
      ],
      "stateMutability": "view",
      "type": "function"
    },
    {
      "inputs": [
        {
          "internalType": "uint256",
          "name": "",
          "type": "uint256"
        }
      ],
      "name": "loans",
      "outputs": [
        {
          "internalType": "address",
          "name": "borrower",
          "type": "address"
        },
        {
          "internalType": "address",
          "name": "lender",
          "type": "address"
        },
        {
          "internalType": "uint256",
          "name": "amount",
          "type": "uint256"
        },
        {
          "internalType": "uint256",
          "name": "duration",
          "type": "uint256"
        },
        {
          "internalType": "uint256",
          "name": "createdAt",
          "type": "uint256"
        },
        {
          "internalType": "bool",
          "name": "funded",
          "type": "bool"
        },
        {
          "internalType": "bool",
          "name": "repaid",
          "type": "bool"
        },
        {
          "internalType": "bool",
          "name": "withdrawn",
          "type": "bool"
        }
      ],
      "stateMutability": "view",
      "type": "function"
    },
    {
      "inputs": [
        {
          "internalType": "uint256",
          "name": "loanId",
          "type": "uint256"
        }
      ],
      "name": "repayLoan",
      "outputs": [],
      "stateMutability": "payable",
      "type": "function"
    },
    {
      "inputs": [],
      "name": "trustScoreContract",
      "outputs": [
        {
          "internalType": "contract ITrustScore",
          "name": "",
          "type": "address"
        }
      ],
      "stateMutability": "view",
      "type": "function"
    },
    {
      "inputs": [
        {
          "internalType": "uint256",
          "name": "loanId",
          "type": "uint256"
        }
      ],
      "name": "withdrawLoan",
      "outputs": [],
      "stateMutability": "nonpayable",
      "type": "function"
    }
  ],
  "bytecode": "0x60806040523480156200001157600080fd5b50604051620016e3380380620016e38339818101604052810190620000379190620000e8565b806000806101000a81548173ffffffffffffffffffffffffffffffffffffffff021916908373ffffffffffffffffffffffffffffffffffffffff160217905550506200011a565b600080fd5b600073ffffffffffffffffffffffffffffffffffffffff82169050919050565b6000620000b08262000083565b9050919050565b620000c281620000a3565b8114620000ce57600080fd5b50565b600081519050620000e281620000b7565b92915050565b6000602082840312156200010157620001006200007e565b5b60006200011184828501620000d1565b91505092915050565b6115b9806200012a6000396000f3fe6080604052600436106100705760003560e01c8063aa4a87111161004e578063aa4a8711146100e3578063ab7b1c891461010e578063dc7831fd1461012a578063e1ec3c681461015557610070565b80632a104d8d14610075578063846b909a1461009e57806398cd90b5146100ba575b600080fd5b34801561008157600080fd5b5061009c60048036038101906100979190610ccb565b610199565b005b6100b860048036038101906100b39190610ccb565b610397565b005b3480156100c657600080fd5b506100e160048036038101906100dc9190610cf8565b6104f2565b005b3480156100ef57600080fd5b506100f86107ce565b6040516101059190610ef5565b60405180910390f35b61012860048036038101906101239190610ccb565b610949565b005b34801561013657600080fd5b5061013f610bad565b60405161014c9190610f76565b60405180910390f35b34801561016157600080fd5b5061017c60048036038101906101779190610ccb565b610bd1565b604051610190989796959493929190610fbe565b60405180910390f35b6000600182815481106101af576101ae61103c565b5b906000526020600020906006020190508060000160009054906101000a900473ffffffffffffffffffffffffffffffffffffffff1673ffffffffffffffffffffffffffffffffffffffff163373ffffffffffffffffffffffffffffffffffffffff1614610251576040517f08c379a0000000000000000000000000000000000000000000000000000000008152600401610248906110c8565b60405180910390fd5b8060050160009054906101000a900460ff166102a2576040517f08c379a000000000000000000000000000000000000000000000000000000000815260040161029990611134565b60405180910390fd5b8060050160029054906101000a900460ff16156102f4576040517f08c379a00000000000000000000000000000000000000000000000000000000081526004016102eb906111a0565b60405180910390fd5b60018160050160026101000a81548160ff0219169083151502179055503373ffffffffffffffffffffffffffffffffffffffff166108fc82600201549081150290604051600060405180830381858888f1935050505015801561035b573d6000803e3d6000fd5b507f80d20af2588d80a09297ff6168a12b09b961c8034b35de8001af787cc6d57bdb8260405161038b91906111c0565b60405180910390a15050565b6000600182815481106103ad576103ac61103c565b5b906000526020600020906006020190508060050160009054906101000a900460ff161561040f576040517f08c379a000000000000000000000000000000000000000000000000000000000815260040161040690611227565b60405180910390fd5b80600201543414610455576040517f08c379a000000000000000000000000000000000000000000000000000000000815260040161044c90611293565b60405180910390fd5b338160010160006101000a81548173ffffffffffffffffffffffffffffffffffffffff021916908373ffffffffffffffffffffffffffffffffffffffff16021790555060018160050160006101000a81548160ff0219169083151502179055507f15feab5d3eb17171632762cf769709a315dd15f487a556c0dfb8a259c8f186cc82336040516104e69291906112b3565b60405180910390a15050565b60008060009054906101000a900473ffffffffffffffffffffffffffffffffffffffff1673ffffffffffffffffffffffffffffffffffffffff1663d47875d0336040518263ffffffff1660e01b815260040161054e91906112dc565b602060405180830381865afa15801561056b573d6000803e3d6000fd5b505050506040513d601f19601f8201168201806040525081019061058f919061130c565b905060288110156105d5576040517f08c379a00000000000000000000000000000000000000000000000000000000081526004016105cc90611385565b60405180910390fd5b60016040518061010001604052803373ffffffffffffffffffffffffffffffffffffffff168152602001600073ffffffffffffffffffffffffffffffffffffffff16815260200185815260200184815260200142815260200160001515815260200160001515815260200160001515815250908060018154018082558091505060019003906000526020600020906006020160009091909190915060008201518160000160006101000a81548173ffffffffffffffffffffffffffffffffffffffff021916908373ffffffffffffffffffffffffffffffffffffffff16021790555060208201518160010160006101000a81548173ffffffffffffffffffffffffffffffffffffffff021916908373ffffffffffffffffffffffffffffffffffffffff16021790555060408201518160020155606082015181600301556080820151816004015560a08201518160050160006101000a81548160ff02191690831515021790555060c08201518160050160016101000a81548160ff02191690831515021790555060e08201518160050160026101000a81548160ff02191690831515021790555050507f97e04be2fd6414727fe9d0400464568f4384aa8b06264119565ca8f6cc2a4b7a600180805490506107b091906113d4565b33856040516107c193929190611408565b60405180910390a1505050565b60606001805480602002602001604051908101604052809291908181526020016000905b828210156109405783829060005260206000209060060201604051806101000160405290816000820160009054906101000a900473ffffffffffffffffffffffffffffffffffffffff1673ffffffffffffffffffffffffffffffffffffffff1673ffffffffffffffffffffffffffffffffffffffff1681526020016001820160009054906101000a900473ffffffffffffffffffffffffffffffffffffffff1673ffffffffffffffffffffffffffffffffffffffff1673ffffffffffffffffffffffffffffffffffffffff1681526020016002820154815260200160038201548152602001600482015481526020016005820160009054906101000a900460ff161515151581526020016005820160019054906101000a900460ff161515151581526020016005820160029054906101000a900460ff161515151581525050815260200190600101906107f2565b50505050905090565b60006001828154811061095f5761095e61103c565b5b906000526020600020906006020190508060000160009054906101000a900473ffffffffffffffffffffffffffffffffffffffff1673ffffffffffffffffffffffffffffffffffffffff163373ffffffffffffffffffffffffffffffffffffffff1614610a01576040517f08c379a00000000000000000000000000000000000000000000000000000000081526004016109f8906110c8565b60405180910390fd5b8060050160029054906101000a900460ff16610a52576040517f08c379a0000000000000000000000000000000000000000000000000000000008152600401610a499061148b565b60405180910390fd5b8060050160019054906101000a900460ff1615610aa4576040517f08c379a0000000000000000000000000000000000000000000000000000000008152600401610a9b906114f7565b60405180910390fd5b80600201543414610aea576040517f08c379a0000000000000000000000000000000000000000000000000000000008152600401610ae190611563565b60405180910390fd5b60018160050160016101000a81548160ff0219169083151502179055508060010160009054906101000a900473ffffffffffffffffffffffffffffffffffffffff1673ffffffffffffffffffffffffffffffffffffffff166108fc349081150290604051600060405180830381858888f19350505050158015610b71573d6000803e3d6000fd5b507f9a7851747cd7ffb3fe0a32caf3da48b31f27cebe131267051640f8b72fc4718682604051610ba191906111c0565b60405180910390a15050565b60008054906101000a900473ffffffffffffffffffffffffffffffffffffffff1681565b60018181548110610be157600080fd5b90600052602060002090600602016000915090508060000160009054906101000a900473ffffffffffffffffffffffffffffffffffffffff16908060010160009054906101000a900473ffffffffffffffffffffffffffffffffffffffff16908060020154908060030154908060040154908060050160009054906101000a900460ff16908060050160019054906101000a900460ff16908060050160029054906101000a900460ff16905088565b600080fd5b6000819050919050565b610ca881610c95565b8114610cb357600080fd5b50565b600081359050610cc581610c9f565b92915050565b600060208284031215610ce157610ce0610c90565b5b6000610cef84828501610cb6565b91505092915050565b60008060408385031215610d0f57610d0e610c90565b5b6000610d1d85828601610cb6565b9250506020610d2e85828601610cb6565b9150509250929050565b600081519050919050565b600082825260208201905092915050565b6000819050602082019050919050565b600073ffffffffffffffffffffffffffffffffffffffff82169050919050565b6000610d8f82610d64565b9050919050565b610d9f81610d84565b82525050565b610dae81610c95565b82525050565b60008115159050919050565b610dc981610db4565b82525050565b61010082016000820151610de66000850182610d96565b506020820151610df96020850182610d96565b506040820151610e0c6040850182610da5565b506060820151610e1f6060850182610da5565b506080820151610e326080850182610da5565b5060a0820151610e4560a0850182610dc0565b5060c0820151610e5860c0850182610dc0565b5060e0820151610e6b60e0850182610dc0565b50505050565b6000610e7d8383610dcf565b6101008301905092915050565b6000602082019050919050565b6000610ea282610d38565b610eac8185610d43565b9350610eb783610d54565b8060005b83811015610ee8578151610ecf8882610e71565b9750610eda83610e8a565b925050600181019050610ebb565b5085935050505092915050565b60006020820190508181036000830152610f0f8184610e97565b905092915050565b6000819050919050565b6000610f3c610f37610f3284610d64565b610f17565b610d64565b9050919050565b6000610f4e82610f21565b9050919050565b6000610f6082610f43565b9050919050565b610f7081610f55565b82525050565b6000602082019050610f8b6000830184610f67565b92915050565b610f9a81610d84565b82525050565b610fa981610c95565b82525050565b610fb881610db4565b82525050565b600061010082019050610fd4600083018b610f91565b610fe1602083018a610f91565b610fee6040830189610fa0565b610ffb6060830188610fa0565b6110086080830187610fa0565b61101560a0830186610faf565b61102260c0830185610faf565b61102f60e0830184610faf565b9998505050505050505050565b7f4e487b7100000000000000000000000000000000000000000000000000000000600052603260045260246000fd5b600082825260208201905092915050565b7f4e6f7420626f72726f7765720000000000000000000000000000000000000000600082015250565b60006110b2600c8361106b565b91506110bd8261107c565b602082019050919050565b600060208201905081810360008301526110e1816110a5565b9050919050565b7f4c6f616e206e6f742066756e6465640000000000000000000000000000000000600082015250565b600061111e600f8361106b565b9150611129826110e8565b602082019050919050565b6000602082019050818103600083015261114d81611111565b9050919050565b7f416c72656164792077697468647261776e000000000000000000000000000000600082015250565b600061118a60118361106b565b915061119582611154565b602082019050919050565b600060208201905081810360008301526111b98161117d565b9050919050565b60006020820190506111d56000830184610fa0565b92915050565b7f416c72656164792066756e646564000000000000000000000000000000000000600082015250565b6000611211600e8361106b565b915061121c826111db565b602082019050919050565b6000602082019050818103600083015261124081611204565b9050919050565b7f496e636f72726563742045544820616d6f756e74000000000000000000000000600082015250565b600061127d60148361106b565b915061128882611247565b602082019050919050565b600060208201905081810360008301526112ac81611270565b9050919050565b60006040820190506112c86000830185610fa0565b6112d56020830184610f91565b9392505050565b60006020820190506112f16000830184610f91565b92915050565b60008151905061130681610c9f565b92915050565b60006020828403121561132257611321610c90565b5b6000611330848285016112f7565b91505092915050565b7f54727573742073636f726520746f6f206c6f7700000000000000000000000000600082015250565b600061136f60138361106b565b915061137a82611339565b602082019050919050565b6000602082019050818103600083015261139e81611362565b9050919050565b7f4e487b7100000000000000000000000000000000000000000000000000000000600052601160045260246000fd5b60006113df82610c95565b91506113ea83610c95565b9250828203905081811115611402576114016113a5565b5b92915050565b600060608201905061141d6000830186610fa0565b61142a6020830185610f91565b6114376040830184610fa0565b949350505050565b7f4c6f616e206e6f742077697468647261776e0000000000000000000000000000600082015250565b600061147560128361106b565b91506114808261143f565b602082019050919050565b600060208201905081810360008301526114a481611468565b9050919050565b7f416c726561647920726570616964000000000000000000000000000000000000600082015250565b60006114e1600e8361106b565b91506114ec826114ab565b602082019050919050565b60006020820190508181036000830152611510816114d4565b9050919050565b7f496e636f72726563742072657061796d656e7400000000000000000000000000600082015250565b600061154d60138361106b565b915061155882611517565b602082019050919050565b6000602082019050818103600083015261157c81611540565b905091905056fea2646970667358221220057369b793a9f3c80cca86ecf824a3d714ec55bf38c77cf3e92272babe1784fd64736f6c63430008140033",
  "linkReferences": {},
  "deployedLinkReferences": {}
}