{
  "_format": "hh-sol-artifact-1",
  "contractName": "LoanFactory",
  "sourceName": "contracts/LoanFactory.sol",
  "abi": [
    {
      "inputs": [
        {
          "internalType": "uint256",
          "name": "",
          "type": "uint256"
        }
      ],
      "name": "allLoans",
      "outputs": [
        {
          "internalType": "address",
          "name": "",
          "type": "address"
        }
      ],
      "stateMutability": "view",
      "type": "function"
    },
    {
      "inputs": [
        {
          "internalType": "address",
          "name": "borrower",
          "type": "address"
        },
        {
          "internalType": "address",
          "name": "groupPool",
          "type": "address"
        },
        {
          "internalType": "uint256",
          "name": "interest",
          "type": "uint256"
        },
        {
          "internalType": "uint256",
          "name": "duration",
          "type": "uint256"
        }
      ],
      "name": "createLoan",
      "outputs": [],
      "stateMutability": "payable",
      "type": "function"
    },
    {
      "inputs": [],
      "name": "getLoans",
      "outputs": [
        {
          "internalType": "address[]",
          "name": "",
          "type": "address[]"
        }
      ],
      "stateMutability": "view",
      "type": "function"
    }
  ],
  "bytecode": "0x6080604052348015600f57600080fd5b506110138061001f6000396000f3fe6080604052600436106100345760003560e01c80631b8a354814610039578063aa4a871114610076578063f255ec3f146100a1575b600080fd5b34801561004557600080fd5b50610060600480360381019061005b919061027c565b6100bd565b60405161006d91906102ea565b60405180910390f35b34801561008257600080fd5b5061008b6100fc565b60405161009891906103c3565b60405180910390f35b6100bb60048036038101906100b69190610411565b61018a565b005b600081815481106100cd57600080fd5b906000526020600020016000915054906101000a900473ffffffffffffffffffffffffffffffffffffffff1681565b6060600080548060200260200160405190810160405280929190818152602001828054801561018057602002820191906000526020600020905b8160009054906101000a900473ffffffffffffffffffffffffffffffffffffffff1673ffffffffffffffffffffffffffffffffffffffff1681526020019060010190808311610136575b5050505050905090565b6000348585858560405161019d90610234565b6101aa9493929190610487565b6040518091039082f09050801580156101c7573d6000803e3d6000fd5b5090506000819080600181540180825580915050600190039060005260206000200160009091909190916101000a81548173ffffffffffffffffffffffffffffffffffffffff021916908373ffffffffffffffffffffffffffffffffffffffff1602179055505050505050565b610b11806104cd83390190565b600080fd5b6000819050919050565b61025981610246565b811461026457600080fd5b50565b60008135905061027681610250565b92915050565b60006020828403121561029257610291610241565b5b60006102a084828501610267565b91505092915050565b600073ffffffffffffffffffffffffffffffffffffffff82169050919050565b60006102d4826102a9565b9050919050565b6102e4816102c9565b82525050565b60006020820190506102ff60008301846102db565b92915050565b600081519050919050565b600082825260208201905092915050565b6000819050602082019050919050565b61033a816102c9565b82525050565b600061034c8383610331565b60208301905092915050565b6000602082019050919050565b600061037082610305565b61037a8185610310565b935061038583610321565b8060005b838110156103b657815161039d8882610340565b97506103a883610358565b925050600181019050610389565b5085935050505092915050565b600060208201905081810360008301526103dd8184610365565b905092915050565b6103ee816102c9565b81146103f957600080fd5b50565b60008135905061040b816103e5565b92915050565b6000806000806080858703121561042b5761042a610241565b5b6000610439878288016103fc565b945050602061044a878288016103fc565b935050604061045b87828801610267565b925050606061046c87828801610267565b91505092959194509250565b61048181610246565b82525050565b600060808201905061049c60008301876102db565b6104a960208301866102db565b6104b66040830185610478565b6104c36060830184610478565b9594505050505056fe6080604052604051610b11380380610b11833981810160405281019061002591906101a9565b336000806101000a81548173ffffffffffffffffffffffffffffffffffffffff021916908373ffffffffffffffffffffffffffffffffffffffff16021790555083600160006101000a81548173ffffffffffffffffffffffffffffffffffffffff021916908373ffffffffffffffffffffffffffffffffffffffff16021790555082600260006101000a81548173ffffffffffffffffffffffffffffffffffffffff021916908373ffffffffffffffffffffffffffffffffffffffff16021790555034600381905550816004819055508042610101919061023f565b60058190555050505050610273565b600080fd5b600073ffffffffffffffffffffffffffffffffffffffff82169050919050565b600061014082610115565b9050919050565b61015081610135565b811461015b57600080fd5b50565b60008151905061016d81610147565b92915050565b6000819050919050565b61018681610173565b811461019157600080fd5b50565b6000815190506101a38161017d565b92915050565b600080600080608085870312156101c3576101c2610110565b5b60006101d18782880161015e565b94505060206101e28782880161015e565b93505060406101f387828801610194565b925050606061020487828801610194565b91505092959194509250565b7f4e487b7100000000000000000000000000000000000000000000000000000000600052601160045260246000fd5b600061024a82610173565b915061025583610173565b925082820190508082111561026d5761026c610210565b5b92915050565b61088f806102826000396000f3fe6080604052600436106100865760003560e01c8063a38aaa9011610059578063a38aaa9014610116578063ba5d307814610141578063bcead63e1461016c578063c392f76614610197578063fbb27dce146101c257610086565b8063402d88831461008b578063734c0a1714610095578063786716fe146100c05780637df1f1b9146100eb575b600080fd5b6100936101ed565b005b3480156100a157600080fd5b506100aa61044b565b6040516100b79190610546565b60405180910390f35b3480156100cc57600080fd5b506100d5610471565b6040516100e2919061057a565b60405180910390f35b3480156100f757600080fd5b50610100610477565b60405161010d9190610546565b60405180910390f35b34801561012257600080fd5b5061012b61049d565b60405161013891906105b0565b60405180910390f35b34801561014d57600080fd5b506101566104c2565b604051610163919061057a565b60405180910390f35b34801561017857600080fd5b506101816104c8565b60405161018e9190610546565b60405180910390f35b3480156101a357600080fd5b506101ac6104ec565b6040516101b9919061057a565b60405180910390f35b3480156101ce57600080fd5b506101d76104f2565b6040516101e491906105b0565b60405180910390f35b600160009054906101000a900473ffffffffffffffffffffffffffffffffffffffff1673ffffffffffffffffffffffffffffffffffffffff163373ffffffffffffffffffffffffffffffffffffffff161461027d576040517f08c379a000000000000000000000000000000000000000000000000000000000815260040161027490610628565b60405180910390fd5b600660009054906101000a900460ff16156102cd576040517f08c379a00000000000000000000000000000000000000000000000000000000081526004016102c490610694565b60405180910390fd5b6004546003546102dd91906106e3565b341461031e576040517f08c379a000000000000000000000000000000000000000000000000000000000815260040161031590610763565b60405180910390fd5b60006064600a6004546103319190610783565b61033b91906107f4565b905060008160045461034d9190610825565b60035461035a91906106e3565b90506001600660006101000a81548160ff02191690831515021790555060008054906101000a900473ffffffffffffffffffffffffffffffffffffffff1673ffffffffffffffffffffffffffffffffffffffff166108fc829081150290604051600060405180830381858888f193505050501580156103dd573d6000803e3d6000fd5b50600260009054906101000a900473ffffffffffffffffffffffffffffffffffffffff1673ffffffffffffffffffffffffffffffffffffffff166108fc839081150290604051600060405180830381858888f19350505050158015610446573d6000803e3d6000fd5b505050565b600260009054906101000a900473ffffffffffffffffffffffffffffffffffffffff1681565b60055481565b600160009054906101000a900473ffffffffffffffffffffffffffffffffffffffff1681565b6000600554421180156104bd5750600660009054906101000a900460ff16155b905090565b60035481565b60008054906101000a900473ffffffffffffffffffffffffffffffffffffffff1681565b60045481565b600660009054906101000a900460ff1681565b600073ffffffffffffffffffffffffffffffffffffffff82169050919050565b600061053082610505565b9050919050565b61054081610525565b82525050565b600060208201905061055b6000830184610537565b92915050565b6000819050919050565b61057481610561565b82525050565b600060208201905061058f600083018461056b565b92915050565b60008115159050919050565b6105aa81610595565b82525050565b60006020820190506105c560008301846105a1565b92915050565b600082825260208201905092915050565b7f4e6f7420626f72726f7765720000000000000000000000000000000000000000600082015250565b6000610612600c836105cb565b915061061d826105dc565b602082019050919050565b6000602082019050818103600083015261064181610605565b9050919050565b7f416c726561647920726570616964000000000000000000000000000000000000600082015250565b600061067e600e836105cb565b915061068982610648565b602082019050919050565b600060208201905081810360008301526106ad81610671565b9050919050565b7f4e487b7100000000000000000000000000000000000000000000000000000000600052601160045260246000fd5b60006106ee82610561565b91506106f983610561565b9250828201905080821115610711576107106106b4565b5b92915050565b7f496e636f727265637420616d6f756e7400000000000000000000000000000000600082015250565b600061074d6010836105cb565b915061075882610717565b602082019050919050565b6000602082019050818103600083015261077c81610740565b9050919050565b600061078e82610561565b915061079983610561565b92508282026107a781610561565b915082820484148315176107be576107bd6106b4565b5b5092915050565b7f4e487b7100000000000000000000000000000000000000000000000000000000600052601260045260246000fd5b60006107ff82610561565b915061080a83610561565b92508261081a576108196107c5565b5b828204905092915050565b600061083082610561565b915061083b83610561565b9250828203905081811115610853576108526106b4565b5b9291505056fea2646970667358221220b7692a0d6a11c2e86b5318e66745aede744f6483acc5920e74648601883afc8d64736f6c634300081c0033a2646970667358221220f9bbffca4cada35c572ee3d7475c712e1a5c477b0c567948c2513a5a287e687264736f6c634300081c0033",
  "linkReferences": {},
  "deployedLinkReferences": {}
}