{
  "_format": "hh-sol-artifact-1",
  "contractName": "LoanManager",
  "sourceName": "contracts/LoanManager.sol",
  "abi": [
    {
      "inputs": [
        {
          "internalType": "address",
          "name": "_trustScoreAddress",
          "type": "address"
        }
      ],
      "stateMutability": "nonpayable",
      "type": "constructor"
    },
    {
      "anonymous": false,
      "inputs": [
        {
          "indexed": false,
          "internalType": "uint256",
          "name": "loanId",
          "type": "uint256"
        },
        {
          "indexed": false,
          "internalType": "address",
          "name": "borrower",
          "type": "address"
        }
      ],
      "name": "LoanDefaulted",
      "type": "event"
    },
    {
      "anonymous": false,
      "inputs": [
        {
          "indexed": false,
          "internalType": "uint256",
          "name": "loanId",
          "type": "uint256"
        },
        {
          "indexed": false,
          "internalType": "address",
          "name": "lender",
          "type": "address"
        }
      ],
      "name": "LoanFunded",
      "type": "event"
    },
    {
      "anonymous": false,
      "inputs": [
        {
          "indexed": false,
          "internalType": "uint256",
          "name": "loanId",
          "type": "uint256"
        },
        {
          "indexed": false,
          "internalType": "uint256",
          "name": "totalRepaid",
          "type": "uint256"
        },
        {
          "indexed": false,
          "internalType": "uint256",
          "name": "interest",
          "type": "uint256"
        }
      ],
      "name": "LoanRepaid",
      "type": "event"
    },
    {
      "anonymous": false,
      "inputs": [
        {
          "indexed": false,
          "internalType": "uint256",
          "name": "loanId",
          "type": "uint256"
        },
        {
          "indexed": false,
          "internalType": "address",
          "name": "borrower",
          "type": "address"
        },
        {
          "indexed": false,
          "internalType": "uint256",
          "name": "amount",
          "type": "uint256"
        },
        {
          "indexed": false,
          "internalType": "uint256",
          "name": "interestRate",
          "type": "uint256"
        }
      ],
      "name": "LoanRequested",
      "type": "event"
    },
    {
      "anonymous": false,
      "inputs": [
        {
          "indexed": false,
          "internalType": "uint256",
          "name": "loanId",
          "type": "uint256"
        }
      ],
      "name": "LoanWithdrawn",
      "type": "event"
    },
    {
      "anonymous": false,
      "inputs": [
        {
          "indexed": false,
          "internalType": "uint256",
          "name": "newScore",
          "type": "uint256"
        }
      ],
      "name": "MinTrustScoreUpdated",
      "type": "event"
    },
    {
      "anonymous": false,
      "inputs": [
        {
          "indexed": false,
          "internalType": "address",
          "name": "borrower",
          "type": "address"
        },
        {
          "indexed": false,
          "internalType": "uint256",
          "name": "amount",
          "type": "uint256"
        }
      ],
      "name": "TrustScoreDecreased",
      "type": "event"
    },
    {
      "anonymous": false,
      "inputs": [
        {
          "indexed": false,
          "internalType": "address",
          "name": "borrower",
          "type": "address"
        },
        {
          "indexed": false,
          "internalType": "uint256",
          "name": "amount",
          "type": "uint256"
        }
      ],
      "name": "TrustScoreIncreased",
      "type": "event"
    },
    {
      "inputs": [],
      "name": "admin",
      "outputs": [
        {
          "internalType": "address",
          "name": "",
          "type": "address"
        }
      ],
      "stateMutability": "view",
      "type": "function"
    },
    {
      "inputs": [
        {
          "internalType": "uint256",
          "name": "loanId",
          "type": "uint256"
        }
      ],
      "name": "calculateRepayment",
      "outputs": [
        {
          "internalType": "uint256",
          "name": "",
          "type": "uint256"
        }
      ],
      "stateMutability": "view",
      "type": "function"
    },
    {
      "inputs": [
        {
          "internalType": "uint256",
          "name": "amount",
          "type": "uint256"
        },
        {
          "internalType": "uint256",
          "name": "duration",
          "type": "uint256"
        }
      ],
      "name": "createLoan",
      "outputs": [],
      "stateMutability": "nonpayable",
      "type": "function"
    },
    {
      "inputs": [],
      "name": "defaultPenalty",
      "outputs": [
        {
          "internalType": "uint256",
          "name": "",
          "type": "uint256"
        }
      ],
      "stateMutability": "view",
      "type": "function"
    },
    {
      "inputs": [
        {
          "internalType": "uint256",
          "name": "loanId",
          "type": "uint256"
        }
      ],
      "name": "fundLoan",
      "outputs": [],
      "stateMutability": "payable",
      "type": "function"
    },
    {
      "inputs": [
        {
          "internalType": "address",
          "name": "borrower",
          "type": "address"
        }
      ],
      "name": "getBorrowerLimits",
      "outputs": [
        {
          "internalType": "uint256",
          "name": "trustScore",
          "type": "uint256"
        },
        {
          "internalType": "uint256",
          "name": "maxBorrowLimit",
          "type": "uint256"
        },
        {
          "internalType": "uint256",
          "name": "interestRate",
          "type": "uint256"
        },
        {
          "internalType": "uint256",
          "name": "safetyFee",
          "type": "uint256"
        }
      ],
      "stateMutability": "view",
      "type": "function"
    },
    {
      "inputs": [
        {
          "internalType": "uint256",
          "name": "trustScore",
          "type": "uint256"
        }
      ],
      "name": "getInterestRate",
      "outputs": [
        {
          "internalType": "uint256",
          "name": "",
          "type": "uint256"
        }
      ],
      "stateMutability": "pure",
      "type": "function"
    },
    {
      "inputs": [],
      "name": "getLoans",
      "outputs": [
        {
          "components": [
            {
              "internalType": "address",
              "name": "borrower",
              "type": "address"
            },
            {
              "internalType": "address",
              "name": "lender",
              "type": "address"
            },
            {
              "internalType": "uint256",
              "name": "amount",
              "type": "uint256"
            },
            {
              "internalType": "uint256",
              "name": "interestRate",
              "type": "uint256"
            },
            {
              "internalType": "uint256",
              "name": "safetyFee",
              "type": "uint256"
            },
            {
              "internalType": "uint256",
              "name": "duration",
              "type": "uint256"
            },
            {
              "internalType": "uint256",
              "name": "createdAt",
              "type": "uint256"
            },
            {
              "internalType": "bool",
              "name": "funded",
              "type": "bool"
            },
            {
              "internalType": "bool",
              "name": "repaid",
              "type": "bool"
            },
            {
              "internalType": "bool",
              "name": "withdrawn",
              "type": "bool"
            },
            {
              "internalType": "bool",
              "name": "defaulted",
              "type": "bool"
            }
          ],
          "internalType": "struct LoanManager.Loan[]",
          "name": "",
          "type": "tuple[]"
        }
      ],
      "stateMutability": "view",
      "type": "function"
    },
    {
      "inputs": [
        {
          "internalType": "uint256",
          "name": "trustScore",
          "type": "uint256"
        }
      ],
      "name": "getMaxBorrowLimit",
      "outputs": [
        {
          "internalType": "uint256",
          "name": "",
          "type": "uint256"
        }
      ],
      "stateMutability": "pure",
      "type": "function"
    },
    {
      "inputs": [
        {
          "internalType": "uint256",
          "name": "loanId",
          "type": "uint256"
        }
      ],
      "name": "getRepaymentBreakdown",
      "outputs": [
        {
          "internalType": "uint256",
          "name": "principal",
          "type": "uint256"
        },
        {
          "internalType": "uint256",
          "name": "interest",
          "type": "uint256"
        },
        {
          "internalType": "uint256",
          "name": "safetyFeeAmount",
          "type": "uint256"
        },
        {
          "internalType": "uint256",
          "name": "total",
          "type": "uint256"
        }
      ],
      "stateMutability": "view",
      "type": "function"
    },
    {
      "inputs": [
        {
          "internalType": "uint256",
          "name": "trustScore",
          "type": "uint256"
        }
      ],
      "name": "getSafetyFee",
      "outputs": [
        {
          "internalType": "uint256",
          "name": "",
          "type": "uint256"
        }
      ],
      "stateMutability": "pure",
      "type": "function"
    },
    {
      "inputs": [
        {
          "internalType": "uint256",
          "name": "loanId",
          "type": "uint256"
        }
      ],
      "name": "isLoanOverdue",
      "outputs": [
        {
          "internalType": "bool",
          "name": "",
          "type": "bool"
        }
      ],
      "stateMutability": "view",
      "type": "function"
    },
    {
      "inputs": [
        {
          "internalType": "uint256",
          "name": "",
          "type": "uint256"
        }
      ],
      "name": "loans",
      "outputs": [
        {
          "internalType": "address",
          "name": "borrower",
          "type": "address"
        },
        {
          "internalType": "address",
          "name": "lender",
          "type": "address"
        },
        {
          "internalType": "uint256",
          "name": "amount",
          "type": "uint256"
        },
        {
          "internalType": "uint256",
          "name": "interestRate",
          "type": "uint256"
        },
        {
          "internalType": "uint256",
          "name": "safetyFee",
          "type": "uint256"
        },
        {
          "internalType": "uint256",
          "name": "duration",
          "type": "uint256"
        },
        {
          "internalType": "uint256",
          "name": "createdAt",
          "type": "uint256"
        },
        {
          "internalType": "bool",
          "name": "funded",
          "type": "bool"
        },
        {
          "internalType": "bool",
          "name": "repaid",
          "type": "bool"
        },
        {
          "internalType": "bool",
          "name": "withdrawn",
          "type": "bool"
        },
        {
          "internalType": "bool",
          "name": "defaulted",
          "type": "bool"
        }
      ],
      "stateMutability": "view",
      "type": "function"
    },
    {
      "inputs": [
        {
          "internalType": "uint256",
          "name": "loanId",
          "type": "uint256"
        }
      ],
      "name": "markLoanDefaulted",
      "outputs": [],
      "stateMutability": "nonpayable",
      "type": "function"
    },
    {
      "inputs": [],
      "name": "minTrustScore",
      "outputs": [
        {
          "internalType": "uint256",
          "name": "",
          "type": "uint256"
        }
      ],
      "stateMutability": "view",
      "type": "function"
    },
    {
      "inputs": [
        {
          "internalType": "uint256",
          "name": "loanId",
          "type": "uint256"
        }
      ],
      "name": "repayLoan",
      "outputs": [],
      "stateMutability": "payable",
      "type": "function"
    },
    {
      "inputs": [],
      "name": "repaymentBonus",
      "outputs": [
        {
          "internalType": "uint256",
          "name": "",
          "type": "uint256"
        }
      ],
      "stateMutability": "view",
      "type": "function"
    },
    {
      "inputs": [],
      "name": "safetyPoolAddress",
      "outputs": [
        {
          "internalType": "address",
          "name": "",
          "type": "address"
        }
      ],
      "stateMutability": "view",
      "type": "function"
    },
    {
      "inputs": [
        {
          "internalType": "uint256",
          "name": "_penalty",
          "type": "uint256"
        }
      ],
      "name": "setDefaultPenalty",
      "outputs": [],
      "stateMutability": "nonpayable",
      "type": "function"
    },
    {
      "inputs": [
        {
          "internalType": "uint256",
          "name": "_minScore",
          "type": "uint256"
        }
      ],
      "name": "setMinTrustScore",
      "outputs": [],
      "stateMutability": "nonpayable",
      "type": "function"
    },
    {
      "inputs": [
        {
          "internalType": "uint256",
          "name": "_bonus",
          "type": "uint256"
        }
      ],
      "name": "setRepaymentBonus",
      "outputs": [],
      "stateMutability": "nonpayable",
      "type": "function"
    },
    {
      "inputs": [
        {
          "internalType": "address",
          "name": "_safetyPoolAddress",
          "type": "address"
        }
      ],
      "name": "setSafetyPoolAddress",
      "outputs": [],
      "stateMutability": "nonpayable",
      "type": "function"
    },
    {
      "inputs": [],
      "name": "trustScoreContract",
      "outputs": [
        {
          "internalType": "contract ITrustScore",
          "name": "",
          "type": "address"
        }
      ],
      "stateMutability": "view",
      "type": "function"
    },
    {
      "inputs": [
        {
          "internalType": "uint256",
          "name": "loanId",
          "type": "uint256"
        }
      ],
      "name": "withdrawLoan",
      "outputs": [],
      "stateMutability": "nonpayable",
      "type": "function"
    }
  ],
  "bytecode": "0x60806040526005600355600a6004553480156200001b57600080fd5b50604051620036673803806200366783398181016040528101906200004191906200013b565b806000806101000a81548173ffffffffffffffffffffffffffffffffffffffff021916908373ffffffffffffffffffffffffffffffffffffffff16021790555033600160006101000a81548173ffffffffffffffffffffffffffffffffffffffff021916908373ffffffffffffffffffffffffffffffffffffffff1602179055506028600281905550506200016d565b600080fd5b600073ffffffffffffffffffffffffffffffffffffffff82169050919050565b60006200010382620000d6565b9050919050565b6200011581620000f6565b81146200012157600080fd5b50565b60008151905062000135816200010a565b92915050565b600060208284031215620001545762000153620000d1565b5b6000620001648482850162000124565b91505092915050565b6134ea806200017d6000396000f3fe60806040526004361061014b5760003560e01c8063859d448c116100b6578063d92d7d771161006f578063d92d7d77146104a0578063dc7831fd146104c9578063ddc2707f146104f4578063e1ec3c681461051d578063f851a44014610564578063feb569e51461058f5761014b565b8063859d448c1461038b5780638c489974146103b657806398cd90b5146103f3578063a97dcaf21461041c578063aa4a871114610459578063ab7b1c89146104845761014b565b806353f0366c1161010857806353f0366c146102855780636436078d146102b057806369f9ed25146102db5780636bb49ac81461030457806382cc51df14610344578063846b909a1461036f5761014b565b80630720af251461015057806308fd384d146101905780630c196a74146101b95780632a104d8d146101f65780632b6c1d3a1461021f5780633b49860214610248575b600080fd5b34801561015c57600080fd5b506101776004803603810190610172919061257b565b6105cc565b60405161018794939291906125b7565b60405180910390f35b34801561019c57600080fd5b506101b760048036038101906101b2919061257b565b6107bc565b005b3480156101c557600080fd5b506101e060048036038101906101db919061257b565b6108d1565b6040516101ed91906125fc565b60405180910390f35b34801561020257600080fd5b5061021d6004803603810190610218919061257b565b610926565b005b34801561022b57600080fd5b506102466004803603810190610241919061257b565b610b24565b005b34801561025457600080fd5b5061026f600480360381019061026a919061257b565b610bbe565b60405161027c9190612632565b60405180910390f35b34801561029157600080fd5b5061029a610d8a565b6040516102a791906125fc565b60405180910390f35b3480156102bc57600080fd5b506102c5610d90565b6040516102d2919061268e565b60405180910390f35b3480156102e757600080fd5b5061030260048036038101906102fd91906126d5565b610db6565b005b34801561031057600080fd5b5061032b600480360381019061032691906126d5565b610e8a565b60405161033b94939291906125b7565b60405180910390f35b34801561035057600080fd5b50610359610f54565b60405161036691906125fc565b60405180910390f35b6103896004803603810190610384919061257b565b610f5a565b005b34801561039757600080fd5b506103a06110b5565b6040516103ad91906125fc565b60405180910390f35b3480156103c257600080fd5b506103dd60048036038101906103d8919061257b565b6110bb565b6040516103ea91906125fc565b60405180910390f35b3480156103ff57600080fd5b5061041a60048036038101906104159190612702565b61110d565b005b34801561042857600080fd5b50610443600480360381019061043e919061257b565b6114a6565b60405161045091906125fc565b60405180910390f35b34801561046557600080fd5b5061046e611519565b60405161047b9190612900565b60405180910390f35b61049e6004803603810190610499919061257b565b6116c3565b005b3480156104ac57600080fd5b506104c760048036038101906104c2919061257b565b611d57565b005b3480156104d557600080fd5b506104de612192565b6040516104eb9190612981565b60405180910390f35b34801561050057600080fd5b5061051b6004803603810190610516919061257b565b6121b6565b005b34801561052957600080fd5b50610544600480360381019061053f919061257b565b612250565b60405161055b9b9a9998979695949392919061299c565b60405180910390f35b34801561057057600080fd5b5061057961232e565b604051610586919061268e565b60405180910390f35b34801561059b57600080fd5b506105b660048036038101906105b1919061257b565b612354565b6040516105c391906125fc565b60405180910390f35b6000806000806000600686815481106105e8576105e7612a47565b5b9060005260206000209060080201604051806101600160405290816000820160009054906101000a900473ffffffffffffffffffffffffffffffffffffffff1673ffffffffffffffffffffffffffffffffffffffff1673ffffffffffffffffffffffffffffffffffffffff1681526020016001820160009054906101000a900473ffffffffffffffffffffffffffffffffffffffff1673ffffffffffffffffffffffffffffffffffffffff1673ffffffffffffffffffffffffffffffffffffffff16815260200160028201548152602001600382015481526020016004820154815260200160058201548152602001600682015481526020016007820160009054906101000a900460ff161515151581526020016007820160019054906101000a900460ff161515151581526020016007820160029054906101000a900460ff161515151581526020016007820160039054906101000a900460ff1615151515815250509050806040015194506127108160600151826040015161076c9190612aa5565b6107769190612b16565b93506127108160800151826040015161078f9190612aa5565b6107999190612b16565b92508284866107a89190612b47565b6107b29190612b47565b9150509193509193565b600160009054906101000a900473ffffffffffffffffffffffffffffffffffffffff1673ffffffffffffffffffffffffffffffffffffffff163373ffffffffffffffffffffffffffffffffffffffff161461084c576040517f08c379a000000000000000000000000000000000000000000000000000000000815260040161084390612bfe565b60405180910390fd5b6064811115610890576040517f08c379a000000000000000000000000000000000000000000000000000000000815260040161088790612c6a565b60405180910390fd5b806002819055507f6f7ec9336d4e6a1657c362f72bfa9b5b432d96425b4111b4498eb71d691d6976816040516108c691906125fc565b60405180910390a150565b6000605a82106108e55761012c9050610921565b604b82106108f7576101f49050610921565b603c8210610909576103209050610921565b6032821061091b576104b09050610921565b6105dc90505b919050565b60006006828154811061093c5761093b612a47565b5b906000526020600020906008020190508060000160009054906101000a900473ffffffffffffffffffffffffffffffffffffffff1673ffffffffffffffffffffffffffffffffffffffff163373ffffffffffffffffffffffffffffffffffffffff16146109de576040517f08c379a00000000000000000000000000000000000000000000000000000000081526004016109d590612cd6565b60405180910390fd5b8060070160009054906101000a900460ff16610a2f576040517f08c379a0000000000000000000000000000000000000000000000000000000008152600401610a2690612d42565b60405180910390fd5b8060070160029054906101000a900460ff1615610a81576040517f08c379a0000000000000000000000000000000000000000000000000000000008152600401610a7890612dae565b60405180910390fd5b60018160070160026101000a81548160ff0219169083151502179055503373ffffffffffffffffffffffffffffffffffffffff166108fc82600201549081150290604051600060405180830381858888f19350505050158015610ae8573d6000803e3d6000fd5b507f80d20af2588d80a09297ff6168a12b09b961c8034b35de8001af787cc6d57bdb82604051610b1891906125fc565b60405180910390a15050565b600160009054906101000a900473ffffffffffffffffffffffffffffffffffffffff1673ffffffffffffffffffffffffffffffffffffffff163373ffffffffffffffffffffffffffffffffffffffff1614610bb4576040517f08c379a0000000000000000000000000000000000000000000000000000000008152600401610bab90612e1a565b60405180910390fd5b8060048190555050565b60008060068381548110610bd557610bd4612a47565b5b9060005260206000209060080201604051806101600160405290816000820160009054906101000a900473ffffffffffffffffffffffffffffffffffffffff1673ffffffffffffffffffffffffffffffffffffffff1673ffffffffffffffffffffffffffffffffffffffff1681526020016001820160009054906101000a900473ffffffffffffffffffffffffffffffffffffffff1673ffffffffffffffffffffffffffffffffffffffff1673ffffffffffffffffffffffffffffffffffffffff16815260200160028201548152602001600382015481526020016004820154815260200160058201548152602001600682015481526020016007820160009054906101000a900460ff161515151581526020016007820160019054906101000a900460ff161515151581526020016007820160029054906101000a900460ff161515151581526020016007820160039054906101000a900460ff16151515158152505090508061012001511580610d4f57508061010001515b80610d5c57508061014001515b15610d6b576000915050610d85565b8060a001518160c00151610d7f9190612b47565b42119150505b919050565b60045481565b600560009054906101000a900473ffffffffffffffffffffffffffffffffffffffff1681565b600160009054906101000a900473ffffffffffffffffffffffffffffffffffffffff1673ffffffffffffffffffffffffffffffffffffffff163373ffffffffffffffffffffffffffffffffffffffff1614610e46576040517f08c379a0000000000000000000000000000000000000000000000000000000008152600401610e3d90612e1a565b60405180910390fd5b80600560006101000a81548173ffffffffffffffffffffffffffffffffffffffff021916908373ffffffffffffffffffffffffffffffffffffffff16021790555050565b60008060008060008054906101000a900473ffffffffffffffffffffffffffffffffffffffff1673ffffffffffffffffffffffffffffffffffffffff1663d47875d0866040518263ffffffff1660e01b8152600401610ee9919061268e565b602060405180830381865afa158015610f06573d6000803e3d6000fd5b505050506040513d601f19601f82011682018060405250810190610f2a9190612e4f565b9350610f35846114a6565b9250610f40846108d1565b9150610f4b846110bb565b90509193509193565b60035481565b600060068281548110610f7057610f6f612a47565b5b906000526020600020906008020190508060070160009054906101000a900460ff1615610fd2576040517f08c379a0000000000000000000000000000000000000000000000000000000008152600401610fc990612ec8565b60405180910390fd5b80600201543414611018576040517f08c379a000000000000000000000000000000000000000000000000000000000815260040161100f90612f34565b60405180910390fd5b338160010160006101000a81548173ffffffffffffffffffffffffffffffffffffffff021916908373ffffffffffffffffffffffffffffffffffffffff16021790555060018160070160006101000a81548160ff0219169083151502179055507f15feab5d3eb17171632762cf769709a315dd15f487a556c0dfb8a259c8f186cc82336040516110a9929190612f54565b60405180910390a15050565b60025481565b6000605a82106110ce5760329050611108565b604b82106110df5760649050611108565b603c82106110f05760c89050611108565b60328210611102576101909050611108565b61025890505b919050565b60008060009054906101000a900473ffffffffffffffffffffffffffffffffffffffff1673ffffffffffffffffffffffffffffffffffffffff1663d47875d0336040518263ffffffff1660e01b8152600401611169919061268e565b602060405180830381865afa158015611186573d6000803e3d6000fd5b505050506040513d601f19601f820116820180604052508101906111aa9190612e4f565b90506002548110156111f1576040517f08c379a00000000000000000000000000000000000000000000000000000000081526004016111e890612fc9565b60405180910390fd5b60006111fc826114a6565b905080841115611241576040517f08c379a000000000000000000000000000000000000000000000000000000000815260040161123890613035565b60405180910390fd5b600061124c836108d1565b90506000611259846110bb565b905060066040518061016001604052803373ffffffffffffffffffffffffffffffffffffffff168152602001600073ffffffffffffffffffffffffffffffffffffffff16815260200188815260200184815260200183815260200187815260200142815260200160001515815260200160001515815260200160001515815260200160001515815250908060018154018082558091505060019003906000526020600020906008020160009091909190915060008201518160000160006101000a81548173ffffffffffffffffffffffffffffffffffffffff021916908373ffffffffffffffffffffffffffffffffffffffff16021790555060208201518160010160006101000a81548173ffffffffffffffffffffffffffffffffffffffff021916908373ffffffffffffffffffffffffffffffffffffffff16021790555060408201518160020155606082015181600301556080820151816004015560a0820151816005015560c0820151816006015560e08201518160070160006101000a81548160ff0219169083151502179055506101008201518160070160016101000a81548160ff0219169083151502179055506101208201518160070160026101000a81548160ff0219169083151502179055506101408201518160070160036101000a81548160ff02191690831515021790555050507f68595dbe887ae7f496f2c88735019a8918919a1decfdee6bdb460480ab87decb60016006805490506114839190613055565b3388856040516114969493929190613089565b60405180910390a1505050505050565b6000605a82106114c057678ac7230489e800009050611514565b604b82106114d857674563918244f400009050611514565b603c82106114f057671bc16d674ec800009050611514565b60328210611508576706f05b59d3b200009050611514565b67016345785d8a000090505b919050565b60606006805480602002602001604051908101604052809291908181526020016000905b828210156116ba5783829060005260206000209060080201604051806101600160405290816000820160009054906101000a900473ffffffffffffffffffffffffffffffffffffffff1673ffffffffffffffffffffffffffffffffffffffff1673ffffffffffffffffffffffffffffffffffffffff1681526020016001820160009054906101000a900473ffffffffffffffffffffffffffffffffffffffff1673ffffffffffffffffffffffffffffffffffffffff1673ffffffffffffffffffffffffffffffffffffffff16815260200160028201548152602001600382015481526020016004820154815260200160058201548152602001600682015481526020016007820160009054906101000a900460ff161515151581526020016007820160019054906101000a900460ff161515151581526020016007820160029054906101000a900460ff161515151581526020016007820160039054906101000a900460ff1615151515815250508152602001906001019061153d565b50505050905090565b6000600682815481106116d9576116d8612a47565b5b906000526020600020906008020190508060000160009054906101000a900473ffffffffffffffffffffffffffffffffffffffff1673ffffffffffffffffffffffffffffffffffffffff163373ffffffffffffffffffffffffffffffffffffffff161461177b576040517f08c379a000000000000000000000000000000000000000000000000000000000815260040161177290612cd6565b60405180910390fd5b8060070160029054906101000a900460ff166117cc576040517f08c379a00000000000000000000000000000000000000000000000000000000081526004016117c39061311a565b60405180910390fd5b8060070160019054906101000a900460ff161561181e576040517f08c379a000000000000000000000000000000000000000000000000000000000815260040161181590613186565b60405180910390fd5b8060070160039054906101000a900460ff1615611870576040517f08c379a0000000000000000000000000000000000000000000000000000000008152600401611867906131f2565b60405180910390fd5b600073ffffffffffffffffffffffffffffffffffffffff168160010160009054906101000a900473ffffffffffffffffffffffffffffffffffffffff1673ffffffffffffffffffffffffffffffffffffffff1603611903576040517f08c379a00000000000000000000000000000000000000000000000000000000081526004016118fa9061325e565b60405180910390fd5b600080600080611912866105cc565b93509350935093508034101561195d576040517f08c379a0000000000000000000000000000000000000000000000000000000008152600401611954906132ca565b60405180910390fd5b6000838561196b9190612b47565b90508560010160009054906101000a900473ffffffffffffffffffffffffffffffffffffffff1673ffffffffffffffffffffffffffffffffffffffff166108fc829081150290604051600060405180830381858888f193505050501580156119d7573d6000803e3d6000fd5b50600073ffffffffffffffffffffffffffffffffffffffff16600560009054906101000a900473ffffffffffffffffffffffffffffffffffffffff1673ffffffffffffffffffffffffffffffffffffffff1614158015611a375750600083115b15611aa657600560009054906101000a900473ffffffffffffffffffffffffffffffffffffffff1673ffffffffffffffffffffffffffffffffffffffff166108fc849081150290604051600060405180830381858888f19350505050158015611aa4573d6000803e3d6000fd5b505b60018660070160016101000a81548160ff02191690831515021790555060008060009054906101000a900473ffffffffffffffffffffffffffffffffffffffff1673ffffffffffffffffffffffffffffffffffffffff1663d47875d08860000160009054906101000a900473ffffffffffffffffffffffffffffffffffffffff166040518263ffffffff1660e01b8152600401611b43919061268e565b602060405180830381865afa158015611b60573d6000803e3d6000fd5b505050506040513d601f19601f82011682018060405250810190611b849190612e4f565b9050600060035482611b969190612b47565b90506064811115611ba657606490505b60008054906101000a900473ffffffffffffffffffffffffffffffffffffffff1673ffffffffffffffffffffffffffffffffffffffff166365d977248960000160009054906101000a900473ffffffffffffffffffffffffffffffffffffffff16836040518363ffffffff1660e01b8152600401611c259291906132ea565b600060405180830381600087803b158015611c3f57600080fd5b505af1158015611c53573d6000803e3d6000fd5b505050507fd9cfbcfb9ae5d65b8d34072de4575f602ee25cf3715bc05c291701fe9e258f9a898588604051611c8a93929190613313565b60405180910390a17f690b4ce3d419fb57fc3f5370df8952c41515dee0420fbebf6f582937e2fdd6e08860000160009054906101000a900473ffffffffffffffffffffffffffffffffffffffff16600354604051611ce99291906132ea565b60405180910390a183341115611d4c573373ffffffffffffffffffffffffffffffffffffffff166108fc8534611d1f9190613055565b9081150290604051600060405180830381858888f19350505050158015611d4a573d6000803e3d6000fd5b505b505050505050505050565b600060068281548110611d6d57611d6c612a47565b5b906000526020600020906008020190508060070160039054906101000a900460ff16158015611dab57508060070160019054906101000a900460ff16155b611dea576040517f08c379a0000000000000000000000000000000000000000000000000000000008152600401611de190613396565b60405180910390fd5b611df382610bbe565b611e32576040517f08c379a0000000000000000000000000000000000000000000000000000000008152600401611e2990613402565b60405180910390fd5b8060010160009054906101000a900473ffffffffffffffffffffffffffffffffffffffff1673ffffffffffffffffffffffffffffffffffffffff163373ffffffffffffffffffffffffffffffffffffffff161480611edd5750600160009054906101000a900473ffffffffffffffffffffffffffffffffffffffff1673ffffffffffffffffffffffffffffffffffffffff163373ffffffffffffffffffffffffffffffffffffffff16145b611f1c576040517f08c379a0000000000000000000000000000000000000000000000000000000008152600401611f1390613494565b60405180910390fd5b60018160070160036101000a81548160ff02191690831515021790555060008060009054906101000a900473ffffffffffffffffffffffffffffffffffffffff1673ffffffffffffffffffffffffffffffffffffffff1663d47875d08360000160009054906101000a900473ffffffffffffffffffffffffffffffffffffffff166040518263ffffffff1660e01b8152600401611fb9919061268e565b602060405180830381865afa158015611fd6573d6000803e3d6000fd5b505050506040513d601f19601f82011682018060405250810190611ffa9190612e4f565b90506000600454821161200e57600061201d565b6004548261201c9190613055565b5b905060008054906101000a900473ffffffffffffffffffffffffffffffffffffffff1673ffffffffffffffffffffffffffffffffffffffff166365d977248460000160009054906101000a900473ffffffffffffffffffffffffffffffffffffffff16836040518363ffffffff1660e01b815260040161209e9291906132ea565b600060405180830381600087803b1580156120b857600080fd5b505af11580156120cc573d6000803e3d6000fd5b505050507f13b88e6866f0156d706fecfa22b678de5fc2b749c1d2307f6f47eb541385f1ec848460000160009054906101000a900473ffffffffffffffffffffffffffffffffffffffff16604051612125929190612f54565b60405180910390a17f0e91ab9bf75353d4c44cc2921e3cdcbcafe51ef2598966d389e756396c39a7ad8360000160009054906101000a900473ffffffffffffffffffffffffffffffffffffffff166004546040516121849291906132ea565b60405180910390a150505050565b60008054906101000a900473ffffffffffffffffffffffffffffffffffffffff1681565b600160009054906101000a900473ffffffffffffffffffffffffffffffffffffffff1673ffffffffffffffffffffffffffffffffffffffff163373ffffffffffffffffffffffffffffffffffffffff1614612246576040517f08c379a000000000000000000000000000000000000000000000000000000000815260040161223d90612e1a565b60405180910390fd5b8060038190555050565b6006818154811061226057600080fd5b90600052602060002090600802016000915090508060000160009054906101000a900473ffffffffffffffffffffffffffffffffffffffff16908060010160009054906101000a900473ffffffffffffffffffffffffffffffffffffffff16908060020154908060030154908060040154908060050154908060060154908060070160009054906101000a900460ff16908060070160019054906101000a900460ff16908060070160029054906101000a900460ff16908060070160039054906101000a900460ff1690508b565b600160009054906101000a900473ffffffffffffffffffffffffffffffffffffffff1681565b6000806006838154811061236b5761236a612a47565b5b9060005260206000209060080201604051806101600160405290816000820160009054906101000a900473ffffffffffffffffffffffffffffffffffffffff1673ffffffffffffffffffffffffffffffffffffffff1673ffffffffffffffffffffffffffffffffffffffff1681526020016001820160009054906101000a900473ffffffffffffffffffffffffffffffffffffffff1673ffffffffffffffffffffffffffffffffffffffff1673ffffffffffffffffffffffffffffffffffffffff16815260200160028201548152602001600382015481526020016004820154815260200160058201548152602001600682015481526020016007820160009054906101000a900460ff161515151581526020016007820160019054906101000a900460ff161515151581526020016007820160029054906101000a900460ff161515151581526020016007820160039054906101000a900460ff16151515158152505090506000612710826060015183604001516124ea9190612aa5565b6124f49190612b16565b905060006127108360800151846040015161250f9190612aa5565b6125199190612b16565b90508082846040015161252c9190612b47565b6125369190612b47565b9350505050919050565b600080fd5b6000819050919050565b61255881612545565b811461256357600080fd5b50565b6000813590506125758161254f565b92915050565b60006020828403121561259157612590612540565b5b600061259f84828501612566565b91505092915050565b6125b181612545565b82525050565b60006080820190506125cc60008301876125a8565b6125d960208301866125a8565b6125e660408301856125a8565b6125f360608301846125a8565b95945050505050565b600060208201905061261160008301846125a8565b92915050565b60008115159050919050565b61262c81612617565b82525050565b60006020820190506126476000830184612623565b92915050565b600073ffffffffffffffffffffffffffffffffffffffff82169050919050565b60006126788261264d565b9050919050565b6126888161266d565b82525050565b60006020820190506126a3600083018461267f565b92915050565b6126b28161266d565b81146126bd57600080fd5b50565b6000813590506126cf816126a9565b92915050565b6000602082840312156126eb576126ea612540565b5b60006126f9848285016126c0565b91505092915050565b6000806040838503121561271957612718612540565b5b600061272785828601612566565b925050602061273885828601612566565b9150509250929050565b600081519050919050565b600082825260208201905092915050565b6000819050602082019050919050565b6127778161266d565b82525050565b61278681612545565b82525050565b61279581612617565b82525050565b610160820160008201516127b2600085018261276e565b5060208201516127c5602085018261276e565b5060408201516127d8604085018261277d565b5060608201516127eb606085018261277d565b5060808201516127fe608085018261277d565b5060a082015161281160a085018261277d565b5060c082015161282460c085018261277d565b5060e082015161283760e085018261278c565b5061010082015161284c61010085018261278c565b5061012082015161286161012085018261278c565b5061014082015161287661014085018261278c565b50505050565b6000612888838361279b565b6101608301905092915050565b6000602082019050919050565b60006128ad82612742565b6128b7818561274d565b93506128c28361275e565b8060005b838110156128f35781516128da888261287c565b97506128e583612895565b9250506001810190506128c6565b5085935050505092915050565b6000602082019050818103600083015261291a81846128a2565b905092915050565b6000819050919050565b600061294761294261293d8461264d565b612922565b61264d565b9050919050565b60006129598261292c565b9050919050565b600061296b8261294e565b9050919050565b61297b81612960565b82525050565b60006020820190506129966000830184612972565b92915050565b6000610160820190506129b2600083018e61267f565b6129bf602083018d61267f565b6129cc604083018c6125a8565b6129d9606083018b6125a8565b6129e6608083018a6125a8565b6129f360a08301896125a8565b612a0060c08301886125a8565b612a0d60e0830187612623565b612a1b610100830186612623565b612a29610120830185612623565b612a37610140830184612623565b9c9b505050505050505050505050565b7f4e487b7100000000000000000000000000000000000000000000000000000000600052603260045260246000fd5b7f4e487b7100000000000000000000000000000000000000000000000000000000600052601160045260246000fd5b6000612ab082612545565b9150612abb83612545565b9250828202612ac981612545565b91508282048414831517612ae057612adf612a76565b5b5092915050565b7f4e487b7100000000000000000000000000000000000000000000000000000000600052601260045260246000fd5b6000612b2182612545565b9150612b2c83612545565b925082612b3c57612b3b612ae7565b5b828204905092915050565b6000612b5282612545565b9150612b5d83612545565b9250828201905080821115612b7557612b74612a76565b5b92915050565b600082825260208201905092915050565b7f4f6e6c792061646d696e2063616e20736574206d696e696d756d20747275737460008201527f2073636f72650000000000000000000000000000000000000000000000000000602082015250565b6000612be8602683612b7b565b9150612bf382612b8c565b604082019050919050565b60006020820190508181036000830152612c1781612bdb565b9050919050565b7f53636f7265206d75737420626520302d31303000000000000000000000000000600082015250565b6000612c54601383612b7b565b9150612c5f82612c1e565b602082019050919050565b60006020820190508181036000830152612c8381612c47565b9050919050565b7f4e6f7420626f72726f7765720000000000000000000000000000000000000000600082015250565b6000612cc0600c83612b7b565b9150612ccb82612c8a565b602082019050919050565b60006020820190508181036000830152612cef81612cb3565b9050919050565b7f4c6f616e206e6f742066756e6465640000000000000000000000000000000000600082015250565b6000612d2c600f83612b7b565b9150612d3782612cf6565b602082019050919050565b60006020820190508181036000830152612d5b81612d1f565b9050919050565b7f416c72656164792077697468647261776e000000000000000000000000000000600082015250565b6000612d98601183612b7b565b9150612da382612d62565b602082019050919050565b60006020820190508181036000830152612dc781612d8b565b9050919050565b7f4f6e6c792061646d696e00000000000000000000000000000000000000000000600082015250565b6000612e04600a83612b7b565b9150612e0f82612dce565b602082019050919050565b60006020820190508181036000830152612e3381612df7565b9050919050565b600081519050612e498161254f565b92915050565b600060208284031215612e6557612e64612540565b5b6000612e7384828501612e3a565b91505092915050565b7f416c72656164792066756e646564000000000000000000000000000000000000600082015250565b6000612eb2600e83612b7b565b9150612ebd82612e7c565b602082019050919050565b60006020820190508181036000830152612ee181612ea5565b9050919050565b7f496e636f72726563742045544820616d6f756e74000000000000000000000000600082015250565b6000612f1e601483612b7b565b9150612f2982612ee8565b602082019050919050565b60006020820190508181036000830152612f4d81612f11565b9050919050565b6000604082019050612f6960008301856125a8565b612f76602083018461267f565b9392505050565b7f54727573742073636f726520746f6f206c6f7700000000000000000000000000600082015250565b6000612fb3601383612b7b565b9150612fbe82612f7d565b602082019050919050565b60006020820190508181036000830152612fe281612fa6565b9050919050565b7f416d6f756e74206578636565647320796f757220626f72726f77206c696d6974600082015250565b600061301f602083612b7b565b915061302a82612fe9565b602082019050919050565b6000602082019050818103600083015261304e81613012565b9050919050565b600061306082612545565b915061306b83612545565b925082820390508181111561308357613082612a76565b5b92915050565b600060808201905061309e60008301876125a8565b6130ab602083018661267f565b6130b860408301856125a8565b6130c560608301846125a8565b95945050505050565b7f4c6f616e206e6f742077697468647261776e0000000000000000000000000000600082015250565b6000613104601283612b7b565b915061310f826130ce565b602082019050919050565b60006020820190508181036000830152613133816130f7565b9050919050565b7f416c726561647920726570616964000000000000000000000000000000000000600082015250565b6000613170600e83612b7b565b915061317b8261313a565b602082019050919050565b6000602082019050818103600083015261319f81613163565b9050919050565b7f4c6f616e2069732064656661756c746564000000000000000000000000000000600082015250565b60006131dc601183612b7b565b91506131e7826131a6565b602082019050919050565b6000602082019050818103600083015261320b816131cf565b9050919050565b7f496e76616c6964206c656e646572206164647265737300000000000000000000600082015250565b6000613248601683612b7b565b915061325382613212565b602082019050919050565b600060208201905081810360008301526132778161323b565b9050919050565b7f496e73756666696369656e742072657061796d656e7420616d6f756e74000000600082015250565b60006132b4601d83612b7b565b91506132bf8261327e565b602082019050919050565b600060208201905081810360008301526132e3816132a7565b9050919050565b60006040820190506132ff600083018561267f565b61330c60208301846125a8565b9392505050565b600060608201905061332860008301866125a8565b61333560208301856125a8565b61334260408301846125a8565b949350505050565b7f4c6f616e20616c72656164792066696e616c697a656400000000000000000000600082015250565b6000613380601683612b7b565b915061338b8261334a565b602082019050919050565b600060208201905081810360008301526133af81613373565b9050919050565b7f4c6f616e206973206e6f74206f76657264756500000000000000000000000000600082015250565b60006133ec601383612b7b565b91506133f7826133b6565b602082019050919050565b6000602082019050818103600083015261341b816133df565b9050919050565b7f4f6e6c79206c656e646572206f722061646d696e2063616e206d61726b20646560008201527f6661756c74000000000000000000000000000000000000000000000000000000602082015250565b600061347e602583612b7b565b915061348982613422565b604082019050919050565b600060208201905081810360008301526134ad81613471565b905091905056fea2646970667358221220c037203d7f30cb6496a596152495b111dc69e7fd939f4f0aa8b33f26f47be76564736f6c63430008140033",
  "linkReferences": {},
  "deployedLinkReferences": {}
}