{
  "_format": "hh-sol-artifact-1",
  "contractName": "TrustScore",
  "sourceName": "contracts/TrustScore.sol",
  "abi": [
    {
      "inputs": [],
      "stateMutability": "nonpayable",
      "type": "constructor"
    },
    {
      "inputs": [],
      "name": "admin",
      "outputs": [
        {
          "internalType": "address",
          "name": "",
          "type": "address"
        }
      ],
      "stateMutability": "view",
      "type": "function"
    },
    {
      "inputs": [
        {
          "internalType": "address",
          "name": "user",
          "type": "address"
        }
      ],
      "name": "getScore",
      "outputs": [
        {
          "internalType": "uint256",
          "name": "",
          "type": "uint256"
        }
      ],
      "stateMutability": "view",
      "type": "function"
    },
    {
      "inputs": [],
      "name": "initialScore",
      "outputs": [
        {
          "internalType": "uint256",
          "name": "",
          "type": "uint256"
        }
      ],
      "stateMutability": "view",
      "type": "function"
    },
    {
      "inputs": [],
      "name": "loanManagerAddress",
      "outputs": [
        {
          "internalType": "address",
          "name": "",
          "type": "address"
        }
      ],
      "stateMutability": "view",
      "type": "function"
    },
    {
      "inputs": [
        {
          "internalType": "uint256",
          "name": "_initialScore",
          "type": "uint256"
        }
      ],
      "name": "setInitialScore",
      "outputs": [],
      "stateMutability": "nonpayable",
      "type": "function"
    },
    {
      "inputs": [
        {
          "internalType": "address",
          "name": "_loanManagerAddress",
          "type": "address"
        }
      ],
      "name": "setLoanManagerAddress",
      "outputs": [],
      "stateMutability": "nonpayable",
      "type": "function"
    },
    {
      "inputs": [
        {
          "internalType": "address",
          "name": "",
          "type": "address"
        }
      ],
      "name": "trustScores",
      "outputs": [
        {
          "internalType": "uint256",
          "name": "",
          "type": "uint256"
        }
      ],
      "stateMutability": "view",
      "type": "function"
    },
    {
      "inputs": [
        {
          "internalType": "address",
          "name": "user",
          "type": "address"
        },
        {
          "internalType": "uint256",
          "name": "score",
          "type": "uint256"
        }
      ],
      "name": "updateScore",
      "outputs": [],
      "stateMutability": "nonpayable",
      "type": "function"
    }
  ],
  "bytecode": "0x6080604052603260035534801561001557600080fd5b5033600160006101000a81548173ffffffffffffffffffffffffffffffffffffffff021916908373ffffffffffffffffffffffffffffffffffffffff16021790555061089a806100666000396000f3fe608060405234801561001057600080fd5b50600436106100885760003560e01c8063914d2fa41161005b578063914d2fa414610115578063d47875d014610131578063da09bd4a14610161578063f851a4401461017d57610088565b806312df0fc41461008d57806340eefcbf146100bd578063541e14cd146100db57806365d97724146100f9575b600080fd5b6100a760048036038101906100a291906105eb565b61019b565b6040516100b49190610631565b60405180910390f35b6100c56101b3565b6040516100d2919061065b565b60405180910390f35b6100e36101d9565b6040516100f09190610631565b60405180910390f35b610113600480360381019061010e91906106a2565b6101df565b005b61012f600480360381019061012a91906106e2565b610352565b005b61014b600480360381019061014691906105eb565b610430565b6040516101589190610631565b60405180910390f35b61017b600480360381019061017691906105eb565b61048e565b005b610185610562565b604051610192919061065b565b60405180910390f35b60006020528060005260406000206000915090505481565b600260009054906101000a900473ffffffffffffffffffffffffffffffffffffffff1681565b60035481565b600160009054906101000a900473ffffffffffffffffffffffffffffffffffffffff1673ffffffffffffffffffffffffffffffffffffffff163373ffffffffffffffffffffffffffffffffffffffff1614806102885750600260009054906101000a900473ffffffffffffffffffffffffffffffffffffffff1673ffffffffffffffffffffffffffffffffffffffff163373ffffffffffffffffffffffffffffffffffffffff16145b6102c7576040517f08c379a00000000000000000000000000000000000000000000000000000000081526004016102be9061076c565b60405180910390fd5b606481111561030b576040517f08c379a0000000000000000000000000000000000000000000000000000000008152600401610302906107d8565b60405180910390fd5b806000808473ffffffffffffffffffffffffffffffffffffffff1673ffffffffffffffffffffffffffffffffffffffff168152602001908152602001600020819055505050565b600160009054906101000a900473ffffffffffffffffffffffffffffffffffffffff1673ffffffffffffffffffffffffffffffffffffffff163373ffffffffffffffffffffffffffffffffffffffff16146103e2576040517f08c379a00000000000000000000000000000000000000000000000000000000081526004016103d990610844565b60405180910390fd5b6064811115610426576040517f08c379a000000000000000000000000000000000000000000000000000000000815260040161041d906107d8565b60405180910390fd5b8060038190555050565b6000806000808473ffffffffffffffffffffffffffffffffffffffff1673ffffffffffffffffffffffffffffffffffffffff1681526020019081526020016000205490506000811161048457600354610486565b805b915050919050565b600160009054906101000a900473ffffffffffffffffffffffffffffffffffffffff1673ffffffffffffffffffffffffffffffffffffffff163373ffffffffffffffffffffffffffffffffffffffff161461051e576040517f08c379a000000000000000000000000000000000000000000000000000000000815260040161051590610844565b60405180910390fd5b80600260006101000a81548173ffffffffffffffffffffffffffffffffffffffff021916908373ffffffffffffffffffffffffffffffffffffffff16021790555050565b600160009054906101000a900473ffffffffffffffffffffffffffffffffffffffff1681565b600080fd5b600073ffffffffffffffffffffffffffffffffffffffff82169050919050565b60006105b88261058d565b9050919050565b6105c8816105ad565b81146105d357600080fd5b50565b6000813590506105e5816105bf565b92915050565b60006020828403121561060157610600610588565b5b600061060f848285016105d6565b91505092915050565b6000819050919050565b61062b81610618565b82525050565b60006020820190506106466000830184610622565b92915050565b610655816105ad565b82525050565b6000602082019050610670600083018461064c565b92915050565b61067f81610618565b811461068a57600080fd5b50565b60008135905061069c81610676565b92915050565b600080604083850312156106b9576106b8610588565b5b60006106c7858286016105d6565b92505060206106d88582860161068d565b9150509250929050565b6000602082840312156106f8576106f7610588565b5b60006107068482850161068d565b91505092915050565b600082825260208201905092915050565b7f4f6e6c792061646d696e206f72204c6f616e4d616e6167657200000000000000600082015250565b600061075660198361070f565b915061076182610720565b602082019050919050565b6000602082019050818103600083015261078581610749565b9050919050565b7f53636f7265206d75737420626520302d31303000000000000000000000000000600082015250565b60006107c260138361070f565b91506107cd8261078c565b602082019050919050565b600060208201905081810360008301526107f1816107b5565b9050919050565b7f4f6e6c792061646d696e00000000000000000000000000000000000000000000600082015250565b600061082e600a8361070f565b9150610839826107f8565b602082019050919050565b6000602082019050818103600083015261085d81610821565b905091905056fea264697066735822122020406db60aba3aa1aeacb24d12907b4d9d27ccb20e3d97a867ef728b9b6e5f9164736f6c63430008140033",
  "linkReferences": {},
  "deployedLinkReferences": {}
}